{
  "contractName": "AccessControl",
  "abi": [
    {
      "constant": true,
      "inputs": [
        {
          "name": "",
          "type": "uint256"
        }
      ],
      "name": "admins",
      "outputs": [
        {
          "name": "",
          "type": "address"
        }
      ],
      "payable": false,
      "stateMutability": "view",
      "type": "function"
    },
    {
      "constant": true,
      "inputs": [],
      "name": "owner",
      "outputs": [
        {
          "name": "",
          "type": "address"
        }
      ],
      "payable": false,
      "stateMutability": "view",
      "type": "function"
    },
    {
      "constant": false,
      "inputs": [
        {
          "name": "_adminAddress",
          "type": "address"
        }
      ],
      "name": "addAdmin",
      "outputs": [],
      "payable": false,
      "stateMutability": "nonpayable",
      "type": "function"
    }
  ],
  "bytecode": "0x608060405234801561001057600080fd5b5061033c806100206000396000f300608060405260043610610057576000357c0100000000000000000000000000000000000000000000000000000000900463ffffffff16806314bfd6d01461005c57806370480275146100995780638da5cb5b146100c2575b600080fd5b34801561006857600080fd5b50610083600480360361007e9190810190610265565b6100ed565b604051610090919061029d565b60405180910390f35b3480156100a557600080fd5b506100c060048036036100bb919081019061023c565b61012b565b005b3480156100ce57600080fd5b506100d76101ef565b6040516100e4919061029d565b60405180910390f35b6001818154811015156100fc57fe5b906000526020600020016000915054906101000a900473ffffffffffffffffffffffffffffffffffffffff1681565b6000809054906101000a900473ffffffffffffffffffffffffffffffffffffffff1673ffffffffffffffffffffffffffffffffffffffff163373ffffffffffffffffffffffffffffffffffffffff1614151561018657600080fd5b60018190806001815401808255809150509060018203906000526020600020016000909192909190916101000a81548173ffffffffffffffffffffffffffffffffffffffff021916908373ffffffffffffffffffffffffffffffffffffffff1602179055505050565b6000809054906101000a900473ffffffffffffffffffffffffffffffffffffffff1681565b600061022082356102d8565b905092915050565b600061023482356102f8565b905092915050565b60006020828403121561024e57600080fd5b600061025c84828501610214565b91505092915050565b60006020828403121561027757600080fd5b600061028584828501610228565b91505092915050565b610297816102b8565b82525050565b60006020820190506102b2600083018461028e565b92915050565b600073ffffffffffffffffffffffffffffffffffffffff82169050919050565b600073ffffffffffffffffffffffffffffffffffffffff82169050919050565b60008190509190505600a265627a7a7230582047fc048f58c98224fb9055ed395c8328fb734dc31f5fb02ab42225201ace31d56c6578706572696d656e74616cf50037",
  "source": "pragma experimental ABIEncoderV2;\n\n/**\n * @title SafeMath\n * @dev Math operations with safety checks that throw on error\n */\nlibrary SafeMath {\n\n  /**\n  * @dev Multiplies two numbers, throws on overflow.\n  */\n  function mul(uint256 a, uint256 b) internal pure returns (uint256 c) {\n    if (a == 0) {\n      return 0;\n    }\n    c = a * b;\n    assert(c / a == b);\n    return c;\n  }\n\n  /**\n  * @dev Integer division of two numbers, truncating the quotient.\n  */\n  function div(uint256 a, uint256 b) internal pure returns (uint256) {\n    // assert(b > 0); // Solidity automatically throws when dividing by 0\n    // uint256 c = a / b;\n    // assert(a == b * c + a % b); // There is no case in which this doesn't hold\n    return a / b;\n  }\n\n  /**\n  * @dev Subtracts two numbers, throws on overflow (i.e. if subtrahend is greater than minuend).\n  */\n  function sub(uint256 a, uint256 b) internal pure returns (uint256) {\n    assert(b <= a);\n    return a - b;\n  }\n\n  /**\n  * @dev Adds two numbers, throws on overflow.\n  */\n  function add(uint256 a, uint256 b) internal pure returns (uint256 c) {\n    c = a + b;\n    assert(c >= a);\n    return c;\n  }\n}\n\n\ncontract AccessControl {\n  address public owner;\n  address[] public admins;\n\n  modifier onlyOwner {\n    require(msg.sender == owner);\n    _;\n  }\n\n  modifier onlyAdmins {\n    bool found = false;\n\n    for (uint i = 0; i < admins.length; i++) {\n      if (admins[i] == msg.sender) {\n        found = true;\n        break;\n      }\n    }\n\n    require(found);\n    _;\n  }\n\n  function addAdmin(address _adminAddress) public onlyOwner {\n    admins.push(_adminAddress);\n  }\n}\n\ncontract ERC1178 {\n    // Required Functions\n    function implementsERC1178() public pure returns (bool);\n    function totalSupply() public view returns (uint256);\n    function individualSupply(uint256 classId) public view returns (uint256);\n    function balanceOf(address owner, uint256 classId) public view returns (uint256);\n    function classesOwned(address owner) public view returns (uint256[]);\n    function transfer(address to, uint256 classId, uint256 quantity) public;\n    function approve(address to, uint256 classId, uint256 quantity) public;\n    function transferFrom(address from, address to, uint256 classId) public;\n\n    // Optional Functions\n    function name() public pure returns (string);\n    function className(uint256 classId) public view returns (bytes32);\n    function symbol() public pure returns (string);\n\n    // Required Events\n    event Transfer(address indexed from, address indexed to, uint256 indexed classId, uint256 quantity);\n    event Approval(address indexed owner, address indexed approved, uint256 indexed classId, uint256 quantity);\n}\n\ncontract ArtistTokenContract is AccessControl, ERC1178 {\n  using SafeMath for uint256;\n  address public Owner;\n  uint256 public tokenCount;\n  uint256 currentClass;\n  uint256 minTokenPrice;\n  uint256 minCount;\n  struct Transactor {\n    address actor;\n    uint256 amount;\n  }\n  mapping(uint256 => uint256) public classIdToSupply;\n  mapping(address => mapping(uint256 => uint256)) ownerToClassToBalance;\n  mapping(address => mapping(uint256 => Transactor)) approvals;\n  mapping(uint256 => bytes32) public classNames;\n\n  // Constructor\n  constructor () public {\n    Owner = msg.sender;\n    currentClass = 1;\n    tokenCount = 0;\n    minCount = 10000; // min of 10000 tokens\n    minTokenPrice = 20000000000000; // around 0.012 cents per token (price at $600 a ether)\n  }\n\n  function implementsERC1178() public pure returns (bool) {\n    return true;\n  }\n\n  function totalSupply() public view returns (uint256) {\n    return tokenCount;\n  }\n\n  function individualSupply(uint256 classId) public view returns (uint256) {\n    return classIdToSupply[classId];\n  }\n\n  function balanceOf(address owner, uint256 classId) public view returns (uint256) {\n    /* if (ownerToClassToBalance[owner] == 0) return 0; */\n    // TODO: make checks to see if ownerToClassToBalance[owner] and return 0 if u get the empty mapping\n    return ownerToClassToBalance[owner][classId];\n  }\n\n  // class of 0 is meaningless and should be ignored.\n  function classesOwned(address owner) public view returns (uint256[]){\n    uint256[] memory tempClasses = new uint256[](tokenCount);\n    uint256 count = 0;\n    for (uint256 i = 1; i < currentClass; i++){\n      if (ownerToClassToBalance[owner][i] != 0){\n        tempClasses[count] = ownerToClassToBalance[owner][i];\n        count += 1;\n      }\n    }\n    uint256[] memory classes = new uint256[](count);\n    for (i = 0; i < count; i++){\n      classes[i] = tempClasses[i];\n    }\n    return classes;\n  }\n\n  function transfer(address to, uint256 classId, uint256 quantity) public {\n    require(ownerToClassToBalance[msg.sender][classId] >= quantity);\n    ownerToClassToBalance[msg.sender][classId] -= quantity;\n    ownerToClassToBalance[to][classId] += quantity;\n    Transactor memory zeroApproval;\n    zeroApproval = Transactor(0x0, 0);\n    approvals[msg.sender][classId] = zeroApproval;\n  }\n\n  function approve(address to, uint256 classId, uint256 quantity) public {\n    require(ownerToClassToBalance[msg.sender][classId] >= quantity);\n    Transactor memory takerApproval;\n    takerApproval = Transactor(to, quantity);\n    approvals[msg.sender][classId] = takerApproval;\n    emit Approval(msg.sender, to, classId, quantity);\n  }\n\n  function transferFrom(address from, address to, uint256 classId) public {\n    Transactor storage takerApproval = approvals[from][classId];\n    uint256 quantity = takerApproval.amount;\n    require(takerApproval.actor == to && quantity >= ownerToClassToBalance[from][classId]);\n    ownerToClassToBalance[from][classId] -= quantity;\n    ownerToClassToBalance[to][classId] += quantity;\n    Transactor memory zeroApproval;\n    zeroApproval = Transactor(0x0, 0);\n    approvals[from][classId] = zeroApproval;\n  }\n\n  function name() public pure returns (string) {\n    return \"Multi-Class Artist Token\";\n  }\n\n  function className(uint256 classId) public view returns (bytes32){\n    return classNames[classId];\n  }\n\n  function symbol() public pure returns (string) {\n    return \"ARTE\";\n  }\n\n  // Artists call this function to create their own token offering\n  function registerArtist(bytes32 artistName, uint256 count) public payable{\n    require(msg.value >= count * minTokenPrice && count >= minCount);\n    ownerToClassToBalance[msg.sender][currentClass] = count;\n    classNames[count] = artistName;\n    currentClass += 1;\n  }\n\n}\n",
  "sourcePath": "/Users/achon/Downloads/pitbull-dapp/contracts/MCFTArtistTokenContract.sol",
  "compiler": {
    "name": "solc",
    "version": "0.4.24+commit.e67f0147.Emscripten.clang"
  },
  "schemaVersion": "2.0.0",
  "updatedAt": "2018-06-25T06:19:00.307Z"
}