{
  "contractName": "AccessControl",
  "abi": [
    {
      "constant": true,
      "inputs": [
        {
          "name": "",
          "type": "uint256"
        }
      ],
      "name": "admins",
      "outputs": [
        {
          "name": "",
          "type": "address"
        }
      ],
      "payable": false,
      "stateMutability": "view",
      "type": "function"
    },
    {
      "constant": true,
      "inputs": [],
      "name": "owner",
      "outputs": [
        {
          "name": "",
          "type": "address"
        }
      ],
      "payable": false,
      "stateMutability": "view",
      "type": "function"
    },
    {
      "constant": false,
      "inputs": [
        {
          "name": "_adminAddress",
          "type": "address"
        }
      ],
      "name": "addAdmin",
      "outputs": [],
      "payable": false,
      "stateMutability": "nonpayable",
      "type": "function"
    }
  ],
  "bytecode": "0x608060405234801561001057600080fd5b506102b6806100206000396000f300608060405260043610610057576000357c0100000000000000000000000000000000000000000000000000000000900463ffffffff16806314bfd6d01461005c57806370480275146100c95780638da5cb5b1461010c575b600080fd5b34801561006857600080fd5b5061008760048036038101908080359060200190929190505050610163565b604051808273ffffffffffffffffffffffffffffffffffffffff1673ffffffffffffffffffffffffffffffffffffffff16815260200191505060405180910390f35b3480156100d557600080fd5b5061010a600480360381019080803573ffffffffffffffffffffffffffffffffffffffff1690602001909291905050506101a1565b005b34801561011857600080fd5b50610121610265565b604051808273ffffffffffffffffffffffffffffffffffffffff1673ffffffffffffffffffffffffffffffffffffffff16815260200191505060405180910390f35b60018181548110151561017257fe5b906000526020600020016000915054906101000a900473ffffffffffffffffffffffffffffffffffffffff1681565b6000809054906101000a900473ffffffffffffffffffffffffffffffffffffffff1673ffffffffffffffffffffffffffffffffffffffff163373ffffffffffffffffffffffffffffffffffffffff161415156101fc57600080fd5b60018190806001815401808255809150509060018203906000526020600020016000909192909190916101000a81548173ffffffffffffffffffffffffffffffffffffffff021916908373ffffffffffffffffffffffffffffffffffffffff1602179055505050565b6000809054906101000a900473ffffffffffffffffffffffffffffffffffffffff16815600a165627a7a72305820118e8f4968e7a35a8af749c8f8ba2f926877ca3ce999ac6aefc5730e91efe29c0029",
  "source": "pragma solidity ^0.4.21;\n\n\n/**\n * @title SafeMath\n * @dev Math operations with safety checks that throw on error\n */\nlibrary SafeMath {\n\n  /**\n  * @dev Multiplies two numbers, throws on overflow.\n  */\n  function mul(uint256 a, uint256 b) internal pure returns (uint256 c) {\n    if (a == 0) {\n      return 0;\n    }\n    c = a * b;\n    assert(c / a == b);\n    return c;\n  }\n\n  /**\n  * @dev Integer division of two numbers, truncating the quotient.\n  */\n  function div(uint256 a, uint256 b) internal pure returns (uint256) {\n    // assert(b > 0); // Solidity automatically throws when dividing by 0\n    // uint256 c = a / b;\n    // assert(a == b * c + a % b); // There is no case in which this doesn't hold\n    return a / b;\n  }\n\n  /**\n  * @dev Subtracts two numbers, throws on overflow (i.e. if subtrahend is greater than minuend).\n  */\n  function sub(uint256 a, uint256 b) internal pure returns (uint256) {\n    assert(b <= a);\n    return a - b;\n  }\n\n  /**\n  * @dev Adds two numbers, throws on overflow.\n  */\n  function add(uint256 a, uint256 b) internal pure returns (uint256 c) {\n    c = a + b;\n    assert(c >= a);\n    return c;\n  }\n}\n\n\ncontract AccessControl {\n  address public owner;\n  address[] public admins;\n\n  modifier onlyOwner {\n    require(msg.sender == owner);\n    _;\n  }\n\n  modifier onlyAdmins {\n    bool found = false;\n\n    for (uint i = 0; i < admins.length; i++) {\n      if (admins[i] == msg.sender) {\n        found = true;\n        break;\n      }\n    }\n\n    require(found);\n    _;\n  }\n\n  function addAdmin(address _adminAddress) public onlyOwner {\n    admins.push(_adminAddress);\n  }\n}\n\ncontract ERC721 {\n    // Required Functions\n    function implementsERC721() public pure returns (bool);\n    function totalSupply() public view returns (uint256);\n    function balanceOf(address _owner) public view returns (uint256);\n    function ownerOf(uint256 _tokenId) public view returns (address);\n    function transfer(address _to, uint _tokenId) public;\n    function approve(address _to, uint256 _tokenId) public;\n    function transferFrom(address _from, address _to, uint256 _tokenId) public;\n\n    // Optional Functions\n    function name() public pure returns (string);\n    function symbol() public pure returns (string);\n\n    // Required Events\n    event Transfer(address indexed from, address indexed to, uint256 indexed tokenId);\n    event Approval(address indexed owner, address indexed approved, uint256 indexed tokenId);\n}\n\ncontract ArtistTokenContract is AccessControl, ERC721 {\n  using SafeMath for uint256;\n  address owner;\n  uint256 minTokenPrice;\n  uint256 tokenCount;\n  uint256 artistCount;\n  struct ArtistToken {\n    uint256 artistGene; // beyonce, pitbull, etc\n    bytes32 name;\n    bool forSale;\n    uint256 price;\n  }\n  ArtistToken[] public artist;\n  mapping (uint256 => address) public artistTokenIdToOwner;\n  // map from owner -> (map of artistGene -> artistTokens[])\n  mapping (address => mapping(uint256 => uint256[])) internal ownerToArtistGeneMap;\n  mapping (uint256 => address) public artistTokenToApproved;\n  mapping (address => uint256) public userTokenCount;\n  mapping (uint256 => address[]) public artistGeneToAddresses;\n  // Constructor\n  constructor () public {\n    owner = msg.sender;\n    minTokenPrice = 20000000000000; // around 0.012 cents per token (price at $600 a ether)\n    tokenCount = 0;\n    artistCount = 0;\n  }\n\n  function myArtistTokens(uint256 artistGene) public view returns (uint256[]) {\n    uint256[] memory artistTokens = ownerToArtistGeneMap[msg.sender][artistGene];\n    return artistTokens;\n  }\n\n  function whoseArtistTokens(uint256 artistGene, address tokenOwner) public view returns (uint256[]) {\n    uint256[] memory artistTokens = ownerToArtistGeneMap[tokenOwner][artistGene];\n    return artistTokens;\n  }\n\n  function artistToAddresses(uint256 artistGene) public view returns (address[]) {\n    address[] memory addresses = artistGeneToAddresses[artistGene];\n    return addresses;\n  }\n\n\n  // Artists call this function to create their own ICO.\n  function registerArtist(bytes32 _name, uint256 count, uint256 minPrice) public payable returns\n   (uint256 artistGene){\n    require(msg.value >= SafeMath.mul(count, minTokenPrice));\n    artistGene = artistCount; // e.g. 1 for KanyeToken, 2 for DiddyToken\n    artistCount += 1;\n    for (uint i = 0; i < count; i++){\n        uint tokenId = artist.push(ArtistToken(artistGene, _name, true, minPrice));\n        artistTokenIdToOwner[tokenId] = msg.sender;\n        ownerToArtistGeneMap[msg.sender][artistGene].push(tokenId);\n    }\n    tokenCount += count;\n    userTokenCount[msg.sender] += count;\n    artistGeneToAddresses[artistGene].push(msg.sender);\n    return artistGene;\n  }\n\n  function implementsERC721() public pure returns (bool) {\n    return true;\n  }\n\n  function totalSupply() public view returns (uint256) {\n    return tokenCount;\n  }\n\n  function balanceOf(address _owner) public view returns (uint256 balance) {\n    return userTokenCount[_owner];\n  }\n\n  function ownerOf(uint256 _tokenId) public view returns (address artistOwner) {\n    artistOwner = artistTokenIdToOwner[_tokenId];\n    require(artistOwner != address(0));\n    return artistOwner;\n  }\n\n  function transfer(address _to, uint256 _tokenId) public {\n    _transferToken(msg.sender, _to, _tokenId);\n  }\n\n  function _transferToken(address _from, address _to, uint256 _tokenId) internal returns (bool success){\n    require(_to != address(0));\n    require(artistTokenIdToOwner[_tokenId] == _from);\n    artistTokenIdToOwner[_tokenId] = _to;\n    uint256 artistGene = artist[_tokenId].artistGene;\n    uint256[] storage singleUserArtistTokens = ownerToArtistGeneMap[_from][artistGene];\n    if (singleUserArtistTokens.length > 0){ // TODO: verify if this a valid way to check existence\n      require(singleUserArtistTokens.length > 0);\n      for (uint256 i = 0; i < singleUserArtistTokens.length; i++){\n        uint256 artistTokenId = singleUserArtistTokens[i];\n        if (artistTokenId == _tokenId){\n          delete ownerToArtistGeneMap[_from][artistGene][i];\n          if (ownerToArtistGeneMap[_from][artistGene].length == 0){\n            // update artistGeneToAddresses to get rid of _from\n            address[] storage addresses = artistGeneToAddresses[artistGene];\n            for (uint256 artistIndex = 0; artistIndex < addresses.length; artistIndex++){\n              if (addresses[artistIndex] == _from){\n                delete artistGeneToAddresses[artistGene][artistIndex];\n              }\n            }\n          }\n          ownerToArtistGeneMap[_to][artistGene].push(_tokenId);\n          artist[_tokenId].forSale = true;\n          artistTokenToApproved[_tokenId] = 0x0;\n          // update artistGeneToAddresses to keep track of who the artist tokens are owned by\n          if (ownerToArtistGeneMap[_to][artistGene].length == 1){\n            // new user\n            artistGeneToAddresses[artistGene].push(_to);\n          }\n          emit Transfer(msg.sender, _to, _tokenId);\n          return true;\n        }\n      }\n    }\n    return false;\n  }\n\n  function changePrice(uint256 artistGene, uint256 quantity, uint256 price) public {\n    uint256[] storage singleUserArtistTokens = ownerToArtistGeneMap[msg.sender][artistGene];\n    require(singleUserArtistTokens.length >= quantity && quantity >= 0);\n    for (uint256 i = 0; i < singleUserArtistTokens.length; i++){\n      ArtistToken storage token = artist[singleUserArtistTokens[i]];\n      if (token.forSale == true){\n        token.price = price;\n      }\n    }\n  }\n\n  function markNotForSale(uint256 artistGene, uint256 quantity) public {\n    uint256[] storage singleUserArtistTokens = ownerToArtistGeneMap[msg.sender][artistGene];\n    require(singleUserArtistTokens.length >= quantity && quantity >= 0);\n    uint256 count = 0;\n    for (uint256 i = 0; i < singleUserArtistTokens.length; i++){\n      ArtistToken storage token = artist[singleUserArtistTokens[i]];\n      if (token.forSale == true){\n        token.forSale = false;\n        count += 1;\n        if (count == quantity){\n          break;\n        }\n      }\n    }\n  }\n\n  function markForSale(uint256 artistGene, uint256 quantity, uint256 price) public {\n    uint256[] storage singleUserArtistTokens = ownerToArtistGeneMap[msg.sender][artistGene];\n    require(singleUserArtistTokens.length >= quantity && quantity >= 0);\n    changePrice(artistGene, quantity, price);\n    uint256 count = 0;\n    for (uint256 i = 0; i < singleUserArtistTokens.length; i++){\n      ArtistToken storage token = artist[singleUserArtistTokens[i]];\n      if (token.forSale == false){\n        token.forSale = true;\n        count += 1;\n        token.price = price;\n        if (count == quantity){\n          break;\n        }\n      }\n    }\n  }\n\n  function buyArtistTokensFromUser(uint256 artistGene, uint256 quantity, uint256 buyPrice, address seller, uint256 sellPrice) public payable returns (bool success){\n    uint256[] storage singleUserArtistTokens = ownerToArtistGeneMap[seller][artistGene];\n    require(singleUserArtistTokens.length >= quantity);\n    uint256 totalEth = SafeMath.mul(quantity,buyPrice);\n    uint256 forSaleCount = 0;\n    for (uint256 i = 0; i < singleUserArtistTokens.length; i++){\n      if (artist[singleUserArtistTokens[j]].forSale == true){\n        forSaleCount += 1;\n        if (msg.value < totalEth){\n          // not enough money sent\n          require(false);\n        }\n      }\n    }\n    require(forSaleCount >= quantity);\n    uint256 sold = 0;\n    for (uint256 j = 0; j < singleUserArtistTokens.length; j++){\n      if (artist[singleUserArtistTokens[j]].forSale == true){\n        require(_transferToken(seller, msg.sender, singleUserArtistTokens[j]));\n        sold += 1;\n        if (sold == quantity){\n          changePrice(artistGene, quantity, sellPrice);\n          return true;\n        }\n      }\n    }\n    return false;\n  }\n\n  function transferSameTokens(address _to, uint256 _artistId, uint256 number) public returns (bool success) {\n    require(_to != address(0));\n    require(ownerToArtistGeneMap[msg.sender][_artistId].length >= number);\n    uint256[] storage userTokens = ownerToArtistGeneMap[msg.sender][_artistId];\n    for (uint256 i = 0; i < userTokens.length; i++){\n      require(_transferToken(msg.sender, _to, userTokens[i]));\n    }\n    return true;\n  }\n\n  function approve(address _to, uint256 _tokenId) public {\n    require(artistTokenIdToOwner[_tokenId] == msg.sender);\n    artistTokenToApproved[_tokenId] = _to;\n    emit Approval(msg.sender, _to, _tokenId);\n  }\n\n  function transferFrom(address _from, address _to, uint256 _tokenId) public {\n    require(_to != address(0));\n    require(artistTokenToApproved[_tokenId] == msg.sender);\n    require(artistTokenIdToOwner[_tokenId] == _from);\n    _transferToken(_from, _to, _tokenId);\n    emit Transfer(_from, _to, _tokenId);\n  }\n\n  function name() public pure returns (string) {\n    return \"Artist Token\";\n  }\n\n  function symbol() public pure returns (string) {\n    return \"ARTE\";\n  }\n}\n",
  "sourcePath": "/Users/achon/Google Drive/Junior '17-'18/CS 359B/pitbull-dapp/contracts/ArtistTokenContract.sol",
  "compiler": {
    "name": "solc",
    "version": "0.4.24+commit.e67f0147.Emscripten.clang"
  },
  "schemaVersion": "2.0.0",
  "updatedAt": "2018-05-25T12:29:12.722Z"
}