{
  "contractName": "ArtistTokenContract",
  "abi": [
    {
      "constant": true,
      "inputs": [
        {
          "name": "",
          "type": "uint256"
        }
      ],
      "name": "admins",
      "outputs": [
        {
          "name": "",
          "type": "address"
        }
      ],
      "payable": false,
      "stateMutability": "view",
      "type": "function"
    },
    {
      "constant": true,
      "inputs": [
        {
          "name": "",
          "type": "uint256"
        }
      ],
      "name": "artist",
      "outputs": [
        {
          "name": "artistGene",
          "type": "uint256"
        },
        {
          "name": "name",
          "type": "bytes32"
        },
        {
          "name": "forSale",
          "type": "bool"
        },
        {
          "name": "price",
          "type": "uint256"
        }
      ],
      "payable": false,
      "stateMutability": "view",
      "type": "function"
    },
    {
      "constant": false,
      "inputs": [
        {
          "name": "_adminAddress",
          "type": "address"
        }
      ],
      "name": "addAdmin",
      "outputs": [],
      "payable": false,
      "stateMutability": "nonpayable",
      "type": "function"
    },
    {
      "constant": true,
      "inputs": [
        {
          "name": "",
          "type": "uint256"
        }
      ],
      "name": "artistTokenIdToOwner",
      "outputs": [
        {
          "name": "",
          "type": "address"
        }
      ],
      "payable": false,
      "stateMutability": "view",
      "type": "function"
    },
    {
      "constant": true,
      "inputs": [],
      "name": "owner",
      "outputs": [
        {
          "name": "",
          "type": "address"
        }
      ],
      "payable": false,
      "stateMutability": "view",
      "type": "function"
    },
    {
      "constant": true,
      "inputs": [
        {
          "name": "",
          "type": "uint256"
        },
        {
          "name": "",
          "type": "uint256"
        }
      ],
      "name": "artistGeneToAddresses",
      "outputs": [
        {
          "name": "",
          "type": "address"
        }
      ],
      "payable": false,
      "stateMutability": "view",
      "type": "function"
    },
    {
      "constant": true,
      "inputs": [
        {
          "name": "",
          "type": "address"
        }
      ],
      "name": "userTokenCount",
      "outputs": [
        {
          "name": "",
          "type": "uint256"
        }
      ],
      "payable": false,
      "stateMutability": "view",
      "type": "function"
    },
    {
      "constant": true,
      "inputs": [
        {
          "name": "",
          "type": "uint256"
        }
      ],
      "name": "artistTokenToApproved",
      "outputs": [
        {
          "name": "",
          "type": "address"
        }
      ],
      "payable": false,
      "stateMutability": "view",
      "type": "function"
    },
    {
      "inputs": [],
      "payable": false,
      "stateMutability": "nonpayable",
      "type": "constructor"
    },
    {
      "anonymous": false,
      "inputs": [
        {
          "indexed": true,
          "name": "from",
          "type": "address"
        },
        {
          "indexed": true,
          "name": "to",
          "type": "address"
        },
        {
          "indexed": true,
          "name": "tokenId",
          "type": "uint256"
        }
      ],
      "name": "Transfer",
      "type": "event"
    },
    {
      "anonymous": false,
      "inputs": [
        {
          "indexed": true,
          "name": "owner",
          "type": "address"
        },
        {
          "indexed": true,
          "name": "approved",
          "type": "address"
        },
        {
          "indexed": true,
          "name": "tokenId",
          "type": "uint256"
        }
      ],
      "name": "Approval",
      "type": "event"
    },
    {
      "constant": true,
      "inputs": [
        {
          "name": "artistGene",
          "type": "uint256"
        }
      ],
      "name": "myArtistTokens",
      "outputs": [
        {
          "name": "",
          "type": "uint256[]"
        }
      ],
      "payable": false,
      "stateMutability": "view",
      "type": "function"
    },
    {
      "constant": true,
      "inputs": [
        {
          "name": "artistGene",
          "type": "uint256"
        },
        {
          "name": "tokenOwner",
          "type": "address"
        }
      ],
      "name": "whoseArtistTokens",
      "outputs": [
        {
          "name": "",
          "type": "uint256[]"
        }
      ],
      "payable": false,
      "stateMutability": "view",
      "type": "function"
    },
    {
      "constant": true,
      "inputs": [
        {
          "name": "artistGene",
          "type": "uint256"
        }
      ],
      "name": "artistToAddresses",
      "outputs": [
        {
          "name": "",
          "type": "address[]"
        }
      ],
      "payable": false,
      "stateMutability": "view",
      "type": "function"
    },
    {
      "constant": false,
      "inputs": [
        {
          "name": "_name",
          "type": "bytes32"
        },
        {
          "name": "count",
          "type": "uint256"
        },
        {
          "name": "minPrice",
          "type": "uint256"
        }
      ],
      "name": "registerArtist",
      "outputs": [
        {
          "name": "artistGene",
          "type": "uint256"
        }
      ],
      "payable": true,
      "stateMutability": "payable",
      "type": "function"
    },
    {
      "constant": true,
      "inputs": [],
      "name": "implementsERC721",
      "outputs": [
        {
          "name": "",
          "type": "bool"
        }
      ],
      "payable": false,
      "stateMutability": "pure",
      "type": "function"
    },
    {
      "constant": true,
      "inputs": [],
      "name": "totalSupply",
      "outputs": [
        {
          "name": "",
          "type": "uint256"
        }
      ],
      "payable": false,
      "stateMutability": "view",
      "type": "function"
    },
    {
      "constant": true,
      "inputs": [
        {
          "name": "_owner",
          "type": "address"
        }
      ],
      "name": "balanceOf",
      "outputs": [
        {
          "name": "balance",
          "type": "uint256"
        }
      ],
      "payable": false,
      "stateMutability": "view",
      "type": "function"
    },
    {
      "constant": true,
      "inputs": [
        {
          "name": "_tokenId",
          "type": "uint256"
        }
      ],
      "name": "ownerOf",
      "outputs": [
        {
          "name": "artistOwner",
          "type": "address"
        }
      ],
      "payable": false,
      "stateMutability": "view",
      "type": "function"
    },
    {
      "constant": false,
      "inputs": [
        {
          "name": "_to",
          "type": "address"
        },
        {
          "name": "_tokenId",
          "type": "uint256"
        }
      ],
      "name": "transfer",
      "outputs": [],
      "payable": false,
      "stateMutability": "nonpayable",
      "type": "function"
    },
    {
      "constant": false,
      "inputs": [
        {
          "name": "artistGene",
          "type": "uint256"
        },
        {
          "name": "quantity",
          "type": "uint256"
        },
        {
          "name": "price",
          "type": "uint256"
        }
      ],
      "name": "changePrice",
      "outputs": [],
      "payable": false,
      "stateMutability": "nonpayable",
      "type": "function"
    },
    {
      "constant": false,
      "inputs": [
        {
          "name": "artistGene",
          "type": "uint256"
        },
        {
          "name": "quantity",
          "type": "uint256"
        }
      ],
      "name": "markNotForSale",
      "outputs": [],
      "payable": false,
      "stateMutability": "nonpayable",
      "type": "function"
    },
    {
      "constant": false,
      "inputs": [
        {
          "name": "artistGene",
          "type": "uint256"
        },
        {
          "name": "quantity",
          "type": "uint256"
        },
        {
          "name": "price",
          "type": "uint256"
        }
      ],
      "name": "markForSale",
      "outputs": [],
      "payable": false,
      "stateMutability": "nonpayable",
      "type": "function"
    },
    {
      "constant": false,
      "inputs": [
        {
          "name": "artistGene",
          "type": "uint256"
        },
        {
          "name": "quantity",
          "type": "uint256"
        },
        {
          "name": "buyPrice",
          "type": "uint256"
        },
        {
          "name": "seller",
          "type": "address"
        },
        {
          "name": "sellPrice",
          "type": "uint256"
        }
      ],
      "name": "buyArtistTokensFromUser",
      "outputs": [
        {
          "name": "success",
          "type": "bool"
        }
      ],
      "payable": true,
      "stateMutability": "payable",
      "type": "function"
    },
    {
      "constant": false,
      "inputs": [
        {
          "name": "_to",
          "type": "address"
        },
        {
          "name": "_artistId",
          "type": "uint256"
        },
        {
          "name": "number",
          "type": "uint256"
        }
      ],
      "name": "transferSameTokens",
      "outputs": [
        {
          "name": "success",
          "type": "bool"
        }
      ],
      "payable": false,
      "stateMutability": "nonpayable",
      "type": "function"
    },
    {
      "constant": false,
      "inputs": [
        {
          "name": "_to",
          "type": "address"
        },
        {
          "name": "_tokenId",
          "type": "uint256"
        }
      ],
      "name": "approve",
      "outputs": [],
      "payable": false,
      "stateMutability": "nonpayable",
      "type": "function"
    },
    {
      "constant": false,
      "inputs": [
        {
          "name": "_from",
          "type": "address"
        },
        {
          "name": "_to",
          "type": "address"
        },
        {
          "name": "_tokenId",
          "type": "uint256"
        }
      ],
      "name": "transferFrom",
      "outputs": [],
      "payable": false,
      "stateMutability": "nonpayable",
      "type": "function"
    },
    {
      "constant": true,
      "inputs": [],
      "name": "name",
      "outputs": [
        {
          "name": "",
          "type": "string"
        }
      ],
      "payable": false,
      "stateMutability": "pure",
      "type": "function"
    },
    {
      "constant": true,
      "inputs": [],
      "name": "symbol",
      "outputs": [
        {
          "name": "",
          "type": "string"
        }
      ],
      "payable": false,
      "stateMutability": "pure",
      "type": "function"
    }
  ],
  "bytecode": "0x608060405234801561001057600080fd5b5033600260006101000a81548173ffffffffffffffffffffffffffffffffffffffff021916908373ffffffffffffffffffffffffffffffffffffffff1602179055506512309ce54000600381905550600060048190555060006005819055506122bb8061007e6000396000f300608060405260043610610154576000357c0100000000000000000000000000000000000000000000000000000000900463ffffffff16806306fdde0314610159578063095ea7b3146101e95780630aa89503146102365780631051db341461026d57806311ebe9db1461029c57806314bfd6d01461031257806318160ddd1461037f57806323b872dd146103aa578063379bf3491461041757806340e2b4b81461048657806340ebce84146104c75780634b1b7b84146105695780636352211e146105cb578063653feaf7146106385780636db6bfb6146106ba578063704802751461073c57806370a082311461077f5780637ff2f34a146107d65780638da5cb5b1461084357806395d89b411461089a578063a77574e91461092a578063a9059cbb146109a1578063c27a45a7146109ee578063dc02743814610a3a578063dd3ba15614610a91578063e750747714610afe575b600080fd5b34801561016557600080fd5b5061016e610b3f565b6040518080602001828103825283818151815260200191508051906020019080838360005b838110156101ae578082015181840152602081019050610193565b50505050905090810190601f1680156101db5780820380516001836020036101000a031916815260200191505b509250505060405180910390f35b3480156101f557600080fd5b50610234600480360381019080803573ffffffffffffffffffffffffffffffffffffffff16906020019092919080359060200190929190505050610b7c565b005b34801561024257600080fd5b5061026b6004803603810190808035906020019092919080359060200190929190505050610c9a565b005b34801561027957600080fd5b50610282610dc2565b604051808215151515815260200191505060405180910390f35b6102f8600480360381019080803590602001909291908035906020019092919080359060200190929190803573ffffffffffffffffffffffffffffffffffffffff16906020019092919080359060200190929190505050610dcb565b604051808215151515815260200191505060405180910390f35b34801561031e57600080fd5b5061033d60048036038101908080359060200190929190505050610fb9565b604051808273ffffffffffffffffffffffffffffffffffffffff1673ffffffffffffffffffffffffffffffffffffffff16815260200191505060405180910390f35b34801561038b57600080fd5b50610394610ff7565b6040518082815260200191505060405180910390f35b3480156103b657600080fd5b50610415600480360381019080803573ffffffffffffffffffffffffffffffffffffffff169060200190929190803573ffffffffffffffffffffffffffffffffffffffff16906020019092919080359060200190929190505050611001565b005b34801561042357600080fd5b5061046c600480360381019080803573ffffffffffffffffffffffffffffffffffffffff1690602001909291908035906020019092919080359060200190929190505050611183565b604051808215151515815260200191505060405180910390f35b34801561049257600080fd5b506104c56004803603810190808035906020019092919080359060200190929190803590602001909291905050506112d0565b005b3480156104d357600080fd5b5061051260048036038101908080359060200190929190803573ffffffffffffffffffffffffffffffffffffffff1690602001909291905050506113cc565b6040518080602001828103825283818151815260200191508051906020019060200280838360005b8381101561055557808201518184015260208101905061053a565b505050509050019250505060405180910390f35b34801561057557600080fd5b506105946004803603810190808035906020019092919050505061147a565b6040518085815260200184600019166000191681526020018315151515815260200182815260200194505050505060405180910390f35b3480156105d757600080fd5b506105f6600480360381019080803590602001909291905050506114c6565b604051808273ffffffffffffffffffffffffffffffffffffffff1673ffffffffffffffffffffffffffffffffffffffff16815260200191505060405180910390f35b34801561064457600080fd5b5061066360048036038101908080359060200190929190505050611542565b6040518080602001828103825283818151815260200191508051906020019060200280838360005b838110156106a657808201518184015260208101905061068b565b505050509050019250505060405180910390f35b3480156106c657600080fd5b506106e5600480360381019080803590602001909291905050506115ef565b6040518080602001828103825283818151815260200191508051906020019060200280838360005b8381101561072857808201518184015260208101905061070d565b505050509050019250505060405180910390f35b34801561074857600080fd5b5061077d600480360381019080803573ffffffffffffffffffffffffffffffffffffffff169060200190929190505050611695565b005b34801561078b57600080fd5b506107c0600480360381019080803573ffffffffffffffffffffffffffffffffffffffff169060200190929190505050611759565b6040518082815260200191505060405180910390f35b3480156107e257600080fd5b50610801600480360381019080803590602001909291905050506117a2565b604051808273ffffffffffffffffffffffffffffffffffffffff1673ffffffffffffffffffffffffffffffffffffffff16815260200191505060405180910390f35b34801561084f57600080fd5b506108586117d5565b604051808273ffffffffffffffffffffffffffffffffffffffff1673ffffffffffffffffffffffffffffffffffffffff16815260200191505060405180910390f35b3480156108a657600080fd5b506108af6117fa565b6040518080602001828103825283818151815260200191508051906020019080838360005b838110156108ef5780820151818401526020810190506108d4565b50505050905090810190601f16801561091c5780820380516001836020036101000a031916815260200191505b509250505060405180910390f35b34801561093657600080fd5b5061095f6004803603810190808035906020019092919080359060200190929190505050611837565b604051808273ffffffffffffffffffffffffffffffffffffffff1673ffffffffffffffffffffffffffffffffffffffff16815260200191505060405180910390f35b3480156109ad57600080fd5b506109ec600480360381019080803573ffffffffffffffffffffffffffffffffffffffff16906020019092919080359060200190929190505050611884565b005b610a2460048036038101908080356000191690602001909291908035906020019092919080359060200190929190505050611894565b6040518082815260200191505060405180910390f35b348015610a4657600080fd5b50610a7b600480360381019080803573ffffffffffffffffffffffffffffffffffffffff169060200190929190505050611b26565b6040518082815260200191505060405180910390f35b348015610a9d57600080fd5b50610abc60048036038101908080359060200190929190505050611b3e565b604051808273ffffffffffffffffffffffffffffffffffffffff1673ffffffffffffffffffffffffffffffffffffffff16815260200191505060405180910390f35b348015610b0a57600080fd5b50610b3d600480360381019080803590602001909291908035906020019092919080359060200190929190505050611b71565b005b60606040805190810160405280600c81526020017f41727469737420546f6b656e0000000000000000000000000000000000000000815250905090565b3373ffffffffffffffffffffffffffffffffffffffff166007600083815260200190815260200160002060009054906101000a900473ffffffffffffffffffffffffffffffffffffffff1673ffffffffffffffffffffffffffffffffffffffff16141515610be957600080fd5b816009600083815260200190815260200160002060006101000a81548173ffffffffffffffffffffffffffffffffffffffff021916908373ffffffffffffffffffffffffffffffffffffffff160217905550808273ffffffffffffffffffffffffffffffffffffffff163373ffffffffffffffffffffffffffffffffffffffff167f8c5be1e5ebec7d5bd14f71427d1e84f3dd0314c0f7b2291e5b200ac8c7c3b92560405160405180910390a45050565b600080600080600860003373ffffffffffffffffffffffffffffffffffffffff1673ffffffffffffffffffffffffffffffffffffffff1681526020019081526020016000206000878152602001908152602001600020935084848054905010158015610d07575060008510155b1515610d1257600080fd5b60009250600091505b8380549050821015610dba5760068483815481101515610d3757fe5b9060005260206000200154815481101515610d4e57fe5b90600052602060002090600402019050600115158160020160009054906101000a900460ff1615151415610dad5760008160020160006101000a81548160ff02191690831515021790555060018301925084831415610dac57610dba565b5b8180600101925050610d1b565b505050505050565b60006001905090565b6000806000806000806000600860008a73ffffffffffffffffffffffffffffffffffffffff1673ffffffffffffffffffffffffffffffffffffffff16815260200190815260200160002060008d815260200190815260200160002095508a868054905010151515610e3b57600080fd5b898b02945060009350600092505b8580549050831015610ed1576001151560068783815481101515610e6957fe5b9060005260206000200154815481101515610e8057fe5b906000526020600020906004020160020160009054906101000a900460ff1615151415610ec45760018401935084341015610ec35760001515610ec257600080fd5b5b5b8280600101935050610e49565b8a8410151515610ee057600080fd5b60009150600090505b8580549050811015610fa5576001151560068783815481101515610f0957fe5b9060005260206000200154815481101515610f2057fe5b906000526020600020906004020160020160009054906101000a900460ff1615151415610f9857610f6a89338884815481101515610f5a57fe5b9060005260206000200154611cae565b1515610f7557600080fd5b6001820191508a821415610f9757610f8e8c8c8a6112d0565b60019650610faa565b5b8080600101915050610ee9565b600096505b50505050505095945050505050565b600181815481101515610fc857fe5b906000526020600020016000915054906101000a900473ffffffffffffffffffffffffffffffffffffffff1681565b6000600454905090565b600073ffffffffffffffffffffffffffffffffffffffff168273ffffffffffffffffffffffffffffffffffffffff161415151561103d57600080fd5b3373ffffffffffffffffffffffffffffffffffffffff166009600083815260200190815260200160002060009054906101000a900473ffffffffffffffffffffffffffffffffffffffff1673ffffffffffffffffffffffffffffffffffffffff161415156110aa57600080fd5b8273ffffffffffffffffffffffffffffffffffffffff166007600083815260200190815260200160002060009054906101000a900473ffffffffffffffffffffffffffffffffffffffff1673ffffffffffffffffffffffffffffffffffffffff1614151561111757600080fd5b611122838383611cae565b50808273ffffffffffffffffffffffffffffffffffffffff168473ffffffffffffffffffffffffffffffffffffffff167fddf252ad1be2c89b69c2b068fc378daa952ba7f163c4a11628f55a4df523b3ef60405160405180910390a4505050565b60008060008073ffffffffffffffffffffffffffffffffffffffff168673ffffffffffffffffffffffffffffffffffffffff16141515156111c357600080fd5b83600860003373ffffffffffffffffffffffffffffffffffffffff1673ffffffffffffffffffffffffffffffffffffffff1681526020019081526020016000206000878152602001908152602001600020805490501015151561122557600080fd5b600860003373ffffffffffffffffffffffffffffffffffffffff1673ffffffffffffffffffffffffffffffffffffffff16815260200190815260200160002060008681526020019081526020016000209150600090505b81805490508110156112c3576112ab3387848481548110151561129b57fe5b9060005260206000200154611cae565b15156112b657600080fd5b808060010191505061127c565b6001925050509392505050565b6000806000600860003373ffffffffffffffffffffffffffffffffffffffff1673ffffffffffffffffffffffffffffffffffffffff168152602001908152602001600020600087815260200190815260200160002092508483805490501015801561133c575060008510155b151561134757600080fd5b600091505b82805490508210156113c4576006838381548110151561136857fe5b906000526020600020015481548110151561137f57fe5b90600052602060002090600402019050600115158160020160009054906101000a900460ff16151514156113b7578381600301819055505b818060010192505061134c565b505050505050565b606080600860008473ffffffffffffffffffffffffffffffffffffffff1673ffffffffffffffffffffffffffffffffffffffff168152602001908152602001600020600085815260200190815260200160002080548060200260200160405190810160405280929190818152602001828054801561146957602002820191906000526020600020905b815481526020019060010190808311611455575b505050505090508091505092915050565b60068181548110151561148957fe5b90600052602060002090600402016000915090508060000154908060010154908060020160009054906101000a900460ff16908060030154905084565b60006007600083815260200190815260200160002060009054906101000a900473ffffffffffffffffffffffffffffffffffffffff169050600073ffffffffffffffffffffffffffffffffffffffff168173ffffffffffffffffffffffffffffffffffffffff161415151561153a57600080fd5b809050919050565b606080600860003373ffffffffffffffffffffffffffffffffffffffff1673ffffffffffffffffffffffffffffffffffffffff16815260200190815260200160002060008481526020019081526020016000208054806020026020016040519081016040528092919081815260200182805480156115df57602002820191906000526020600020905b8154815260200190600101908083116115cb575b5050505050905080915050919050565b606080600b600084815260200190815260200160002080548060200260200160405190810160405280929190818152602001828054801561168557602002820191906000526020600020905b8160009054906101000a900473ffffffffffffffffffffffffffffffffffffffff1673ffffffffffffffffffffffffffffffffffffffff168152602001906001019080831161163b575b5050505050905080915050919050565b6000809054906101000a900473ffffffffffffffffffffffffffffffffffffffff1673ffffffffffffffffffffffffffffffffffffffff163373ffffffffffffffffffffffffffffffffffffffff161415156116f057600080fd5b60018190806001815401808255809150509060018203906000526020600020016000909192909190916101000a81548173ffffffffffffffffffffffffffffffffffffffff021916908373ffffffffffffffffffffffffffffffffffffffff1602179055505050565b6000600a60008373ffffffffffffffffffffffffffffffffffffffff1673ffffffffffffffffffffffffffffffffffffffff168152602001908152602001600020549050919050565b60076020528060005260406000206000915054906101000a900473ffffffffffffffffffffffffffffffffffffffff1681565b6000809054906101000a900473ffffffffffffffffffffffffffffffffffffffff1681565b60606040805190810160405280600481526020017f4152544500000000000000000000000000000000000000000000000000000000815250905090565b600b6020528160005260406000208181548110151561185257fe5b906000526020600020016000915091509054906101000a900473ffffffffffffffffffffffffffffffffffffffff1681565b61188f338383611cae565b505050565b6000806000600354850234101515156118ac57600080fd5b60055492506001600560008282540192505081905550600091505b84821015611a46576006608060405190810160405280858152602001886000191681526020016001151581526020018681525090806001815401808255809150509060018203906000526020600020906004020160009091929091909150600082015181600001556020820151816001019060001916905560408201518160020160006101000a81548160ff0219169083151502179055506060820151816003015550509050336007600083815260200190815260200160002060006101000a81548173ffffffffffffffffffffffffffffffffffffffff021916908373ffffffffffffffffffffffffffffffffffffffff160217905550600860003373ffffffffffffffffffffffffffffffffffffffff1673ffffffffffffffffffffffffffffffffffffffff168152602001908152602001600020600084815260200190815260200160002081908060018154018082558091505090600182039060005260206000200160009091929091909150555081806001019250506118c7565b8460046000828254019250508190555084600a60003373ffffffffffffffffffffffffffffffffffffffff1673ffffffffffffffffffffffffffffffffffffffff16815260200190815260200160002060008282540192505081905550600b60008481526020019081526020016000203390806001815401808255809150509060018203906000526020600020016000909192909190916101000a81548173ffffffffffffffffffffffffffffffffffffffff021916908373ffffffffffffffffffffffffffffffffffffffff1602179055505082925050509392505050565b600a6020528060005260406000206000915090505481565b60096020528060005260406000206000915054906101000a900473ffffffffffffffffffffffffffffffffffffffff1681565b600080600080600860003373ffffffffffffffffffffffffffffffffffffffff1673ffffffffffffffffffffffffffffffffffffffff1681526020019081526020016000206000888152602001908152602001600020935085848054905010158015611bde575060008610155b1515611be957600080fd5b611bf48787876112d0565b60009250600091505b8380549050821015611ca55760068483815481101515611c1957fe5b9060005260206000200154815481101515611c3057fe5b90600052602060002090600402019050600015158160020160009054906101000a900460ff1615151415611c985760018160020160006101000a81548160ff02191690831515021790555060018301925084816003018190555085831415611c9757611ca5565b5b8180600101925050611bfd565b50505050505050565b60008060008060008060008073ffffffffffffffffffffffffffffffffffffffff168973ffffffffffffffffffffffffffffffffffffffff1614151515611cf457600080fd5b8973ffffffffffffffffffffffffffffffffffffffff16600760008a815260200190815260200160002060009054906101000a900473ffffffffffffffffffffffffffffffffffffffff1673ffffffffffffffffffffffffffffffffffffffff16141515611d6157600080fd5b88600760008a815260200190815260200160002060006101000a81548173ffffffffffffffffffffffffffffffffffffffff021916908373ffffffffffffffffffffffffffffffffffffffff160217905550600688815481101515611dc257fe5b9060005260206000209060040201600001549550600860008b73ffffffffffffffffffffffffffffffffffffffff1673ffffffffffffffffffffffffffffffffffffffff1681526020019081526020016000206000878152602001908152602001600020945060008580549050111561227d5760008580549050111515611e4857600080fd5b600093505b848054905084101561227c578484815481101515611e6757fe5b906000526020600020015492508783141561226f57600860008b73ffffffffffffffffffffffffffffffffffffffff1673ffffffffffffffffffffffffffffffffffffffff168152602001908152602001600020600087815260200190815260200160002084815481101515611ed957fe5b90600052602060002001600090556000600860008c73ffffffffffffffffffffffffffffffffffffffff1673ffffffffffffffffffffffffffffffffffffffff168152602001908152602001600020600088815260200190815260200160002080549050141561203157600b60008781526020019081526020016000209150600090505b8180549050811015612030578973ffffffffffffffffffffffffffffffffffffffff168282815481101515611f8e57fe5b9060005260206000200160009054906101000a900473ffffffffffffffffffffffffffffffffffffffff1673ffffffffffffffffffffffffffffffffffffffff16141561202357600b600087815260200190815260200160002081815481101515611ff557fe5b9060005260206000200160006101000a81549073ffffffffffffffffffffffffffffffffffffffff02191690555b8080600101915050611f5d565b5b600860008a73ffffffffffffffffffffffffffffffffffffffff1673ffffffffffffffffffffffffffffffffffffffff168152602001908152602001600020600087815260200190815260200160002088908060018154018082558091505090600182039060005260206000200160009091929091909150555060016006898154811015156120bc57fe5b906000526020600020906004020160020160006101000a81548160ff0219169083151502179055506000600960008a815260200190815260200160002060006101000a81548173ffffffffffffffffffffffffffffffffffffffff021916908373ffffffffffffffffffffffffffffffffffffffff1602179055506001600860008b73ffffffffffffffffffffffffffffffffffffffff1673ffffffffffffffffffffffffffffffffffffffff168152602001908152602001600020600088815260200190815260200160002080549050141561220b57600b60008781526020019081526020016000208990806001815401808255809150509060018203906000526020600020016000909192909190916101000a81548173ffffffffffffffffffffffffffffffffffffffff021916908373ffffffffffffffffffffffffffffffffffffffff160217905550505b878973ffffffffffffffffffffffffffffffffffffffff163373ffffffffffffffffffffffffffffffffffffffff167fddf252ad1be2c89b69c2b068fc378daa952ba7f163c4a11628f55a4df523b3ef60405160405180910390a460019650612282565b8380600101945050611e4d565b5b600096505b50505050505093925050505600a165627a7a72305820427abded12e83a8113bf5576b52544032d2dd2d79c935823625abf75fd4702d00029",
  "source": "pragma solidity ^0.4.21;\n\ncontract AccessControl {\n  address public owner;\n  address[] public admins;\n\n  modifier onlyOwner {\n    require(msg.sender == owner);\n    _;\n  }\n\n  modifier onlyAdmins {\n    bool found = false;\n\n    for (uint i = 0; i < admins.length; i++) {\n      if (admins[i] == msg.sender) {\n        found = true;\n        break;\n      }\n    }\n\n    require(found);\n    _;\n  }\n\n  function addAdmin(address _adminAddress) public onlyOwner {\n    admins.push(_adminAddress);\n  }\n}\n\ncontract ERC721 {\n    // Required Functions\n    function implementsERC721() public pure returns (bool);\n    function totalSupply() public view returns (uint256);\n    function balanceOf(address _owner) public view returns (uint256);\n    function ownerOf(uint256 _tokenId) public view returns (address);\n    function transfer(address _to, uint _tokenId) public;\n    function approve(address _to, uint256 _tokenId) public;\n    function transferFrom(address _from, address _to, uint256 _tokenId) public;\n\n    // Optional Functions\n    function name() public pure returns (string);\n    function symbol() public pure returns (string);\n\n    // Required Events\n    event Transfer(address indexed from, address indexed to, uint256 indexed tokenId);\n    event Approval(address indexed owner, address indexed approved, uint256 indexed tokenId);\n}\n\ncontract ArtistTokenContract is AccessControl, ERC721 {\n\n  address owner;\n  uint256 minTokenPrice;\n  uint256 tokenCount;\n  uint256 artistCount;\n  struct ArtistToken {\n    uint256 artistGene; // beyonce, pitbull, etc\n    bytes32 name;\n    bool forSale;\n    uint256 price;\n  }\n  ArtistToken[] public artist;\n  mapping (uint256 => address) public artistTokenIdToOwner;\n  // map from owner -> (map of artistGene -> artistTokens[])\n  mapping (address => mapping(uint256 => uint256[])) internal ownerToArtistGeneMap;\n  mapping (uint256 => address) public artistTokenToApproved;\n  mapping (address => uint256) public userTokenCount;\n  mapping (uint256 => address[]) public artistGeneToAddresses;\n  // Constructor\n  constructor () public {\n    owner = msg.sender;\n    minTokenPrice = 20000000000000; // around 0.012 cents per token (price at $600 a ether)\n    tokenCount = 0;\n    artistCount = 0;\n  }\n\n  function myArtistTokens(uint256 artistGene) public view returns (uint256[]) {\n    uint256[] memory artistTokens = ownerToArtistGeneMap[msg.sender][artistGene];\n    return artistTokens;\n  }\n\n  function whoseArtistTokens(uint256 artistGene, address tokenOwner) public view returns (uint256[]) {\n    uint256[] memory artistTokens = ownerToArtistGeneMap[tokenOwner][artistGene];\n    return artistTokens;\n  }\n\n  function artistToAddresses(uint256 artistGene) public view returns (address[]) {\n    address[] memory addresses = artistGeneToAddresses[artistGene];\n    return addresses;\n  }\n\n\n  // Artists call this function to create their own ICO.\n  function registerArtist(bytes32 _name, uint256 count, uint256 minPrice) public payable returns\n   (uint256 artistGene){\n    // TODO: Overflow fix!!!!\n    require(msg.value >= count * minTokenPrice);\n    artistGene = artistCount; // e.g. 1 for KanyeToken, 2 for DiddyToken\n    artistCount += 1;\n    for (uint i = 0; i < count; i++){\n        uint tokenId = artist.push(ArtistToken(artistGene, _name, true, minPrice));\n        artistTokenIdToOwner[tokenId] = msg.sender;\n        ownerToArtistGeneMap[msg.sender][artistGene].push(tokenId);\n    }\n    tokenCount += count;\n    userTokenCount[msg.sender] += count;\n    artistGeneToAddresses[artistGene].push(msg.sender);\n    return artistGene;\n  }\n\n  function implementsERC721() public pure returns (bool) {\n    return true;\n  }\n\n  function totalSupply() public view returns (uint256) {\n    return tokenCount;\n  }\n\n  function balanceOf(address _owner) public view returns (uint256 balance) {\n    return userTokenCount[_owner];\n  }\n\n  function ownerOf(uint256 _tokenId) public view returns (address artistOwner) {\n    artistOwner = artistTokenIdToOwner[_tokenId];\n    require(artistOwner != address(0));\n    return artistOwner;\n  }\n\n  function transfer(address _to, uint256 _tokenId) public {\n    _transferToken(msg.sender, _to, _tokenId);\n  }\n\n  function _transferToken(address _from, address _to, uint256 _tokenId) internal returns (bool success){\n    require(_to != address(0));\n    require(artistTokenIdToOwner[_tokenId] == _from);\n    artistTokenIdToOwner[_tokenId] = _to;\n    uint256 artistGene = artist[_tokenId].artistGene;\n    uint256[] storage singleUserArtistTokens = ownerToArtistGeneMap[_from][artistGene];\n    if (singleUserArtistTokens.length > 0){ // TODO: verify if this a valid way to check existence\n      require(singleUserArtistTokens.length > 0);\n      for (uint256 i = 0; i < singleUserArtistTokens.length; i++){\n        uint256 artistTokenId = singleUserArtistTokens[i];\n        if (artistTokenId == _tokenId){\n          delete ownerToArtistGeneMap[_from][artistGene][i];\n          if (ownerToArtistGeneMap[_from][artistGene].length == 0){\n            // update artistGeneToAddresses to get rid of _from\n            address[] storage addresses = artistGeneToAddresses[artistGene];\n            for (uint256 artistIndex = 0; artistIndex < addresses.length; artistIndex++){\n              if (addresses[artistIndex] == _from){\n                delete artistGeneToAddresses[artistGene][artistIndex];\n              }\n            }\n          }\n          ownerToArtistGeneMap[_to][artistGene].push(_tokenId);\n          artist[_tokenId].forSale = true;\n          artistTokenToApproved[_tokenId] = 0x0;\n          // update artistGeneToAddresses to keep track of who the artist tokens are owned by\n          if (ownerToArtistGeneMap[_to][artistGene].length == 1){\n            // new user\n            artistGeneToAddresses[artistGene].push(_to);\n          }\n          emit Transfer(msg.sender, _to, _tokenId);\n          return true;\n        }\n      }\n    }\n    return false;\n  }\n\n  function changePrice(uint256 artistGene, uint256 quantity, uint256 price) public {\n    uint256[] storage singleUserArtistTokens = ownerToArtistGeneMap[msg.sender][artistGene];\n    require(singleUserArtistTokens.length >= quantity && quantity >= 0);\n    for (uint256 i = 0; i < singleUserArtistTokens.length; i++){\n      ArtistToken storage token = artist[singleUserArtistTokens[i]];\n      if (token.forSale == true){\n        token.price = price;\n      }\n    }\n  }\n\n  function markNotForSale(uint256 artistGene, uint256 quantity) public {\n    uint256[] storage singleUserArtistTokens = ownerToArtistGeneMap[msg.sender][artistGene];\n    require(singleUserArtistTokens.length >= quantity && quantity >= 0);\n    uint256 count = 0;\n    for (uint256 i = 0; i < singleUserArtistTokens.length; i++){\n      ArtistToken storage token = artist[singleUserArtistTokens[i]];\n      if (token.forSale == true){\n        token.forSale = false;\n        count += 1;\n        if (count == quantity){\n          break;\n        }\n      }\n    }\n  }\n\n  function markForSale(uint256 artistGene, uint256 quantity, uint256 price) public {\n    uint256[] storage singleUserArtistTokens = ownerToArtistGeneMap[msg.sender][artistGene];\n    require(singleUserArtistTokens.length >= quantity && quantity >= 0);\n    changePrice(artistGene, quantity, price);\n    uint256 count = 0;\n    for (uint256 i = 0; i < singleUserArtistTokens.length; i++){\n      ArtistToken storage token = artist[singleUserArtistTokens[i]];\n      if (token.forSale == false){\n        token.forSale = true;\n        count += 1;\n        token.price = price;\n        if (count == quantity){\n          break;\n        }\n      }\n    }\n  }\n\n  function buyArtistTokensFromUser(uint256 artistGene, uint256 quantity, uint256 buyPrice, address seller, uint256 sellPrice) public payable returns (bool success){\n    uint256[] storage singleUserArtistTokens = ownerToArtistGeneMap[seller][artistGene];\n    require(singleUserArtistTokens.length >= quantity);\n    // TODO: overflow protection safemath\n    uint256 totalEth = quantity * buyPrice;\n    uint256 forSaleCount = 0;\n    for (uint256 i = 0; i < singleUserArtistTokens.length; i++){\n      if (artist[singleUserArtistTokens[j]].forSale == true){\n        forSaleCount += 1;\n        if (msg.value < totalEth){\n          // not enough money sent\n          require(false);\n        }\n      }\n    }\n    require(forSaleCount >= quantity);\n    uint256 sold = 0;\n    for (uint256 j = 0; j < singleUserArtistTokens.length; j++){\n      if (artist[singleUserArtistTokens[j]].forSale == true){\n        require(_transferToken(seller, msg.sender, singleUserArtistTokens[j]));\n        sold += 1;\n        if (sold == quantity){\n          changePrice(artistGene, quantity, sellPrice);\n          return true;\n        }\n      }\n    }\n\n    return false;\n  }\n\n  function transferSameTokens(address _to, uint256 _artistId, uint256 number) public returns (bool success) {\n    require(_to != address(0));\n    require(ownerToArtistGeneMap[msg.sender][_artistId].length >= number);\n    uint256[] storage userTokens = ownerToArtistGeneMap[msg.sender][_artistId];\n    for (uint256 i = 0; i < userTokens.length; i++){\n      require(_transferToken(msg.sender, _to, userTokens[i]));\n    }\n    return true;\n  }\n\n  function approve(address _to, uint256 _tokenId) public {\n    require(artistTokenIdToOwner[_tokenId] == msg.sender);\n    artistTokenToApproved[_tokenId] = _to;\n    emit Approval(msg.sender, _to, _tokenId);\n  }\n\n  function transferFrom(address _from, address _to, uint256 _tokenId) public {\n    require(_to != address(0));\n    require(artistTokenToApproved[_tokenId] == msg.sender);\n    require(artistTokenIdToOwner[_tokenId] == _from);\n    _transferToken(_from, _to, _tokenId);\n    emit Transfer(_from, _to, _tokenId);\n  }\n\n  function name() public pure returns (string) {\n    return \"Artist Token\";\n  }\n\n  function symbol() public pure returns (string) {\n    return \"ARTE\";\n  }\n}\n",
  "sourcePath": "/Users/achon/Google Drive/Junior '17-'18/CS 359B/pitbull-dapp/contracts/artist.sol",
  "compiler": {
    "name": "solc",
    "version": "0.4.24+commit.e67f0147.Emscripten.clang"
  },
  "schemaVersion": "2.0.0",
  "updatedAt": "2018-05-25T12:17:19.053Z"
}