{
  "contractName": "ArtistTokenContract",
  "abi": [
    {
      "constant": true,
      "inputs": [
        {
          "name": "",
          "type": "uint256"
        }
      ],
      "name": "admins",
      "outputs": [
        {
          "name": "",
          "type": "address"
        }
      ],
      "payable": false,
      "stateMutability": "view",
      "type": "function"
    },
    {
      "constant": true,
      "inputs": [
        {
          "name": "",
          "type": "uint256"
        }
      ],
      "name": "classIdToSupply",
      "outputs": [
        {
          "name": "",
          "type": "uint256"
        }
      ],
      "payable": false,
      "stateMutability": "view",
      "type": "function"
    },
    {
      "constant": false,
      "inputs": [
        {
          "name": "_adminAddress",
          "type": "address"
        }
      ],
      "name": "addAdmin",
      "outputs": [],
      "payable": false,
      "stateMutability": "nonpayable",
      "type": "function"
    },
    {
      "constant": true,
      "inputs": [
        {
          "name": "",
          "type": "uint256"
        }
      ],
      "name": "classNames",
      "outputs": [
        {
          "name": "",
          "type": "bytes32"
        }
      ],
      "payable": false,
      "stateMutability": "view",
      "type": "function"
    },
    {
      "constant": true,
      "inputs": [],
      "name": "owner",
      "outputs": [
        {
          "name": "",
          "type": "address"
        }
      ],
      "payable": false,
      "stateMutability": "view",
      "type": "function"
    },
    {
      "constant": true,
      "inputs": [],
      "name": "tokenCount",
      "outputs": [
        {
          "name": "",
          "type": "uint256"
        }
      ],
      "payable": false,
      "stateMutability": "view",
      "type": "function"
    },
    {
      "constant": true,
      "inputs": [],
      "name": "Owner",
      "outputs": [
        {
          "name": "",
          "type": "address"
        }
      ],
      "payable": false,
      "stateMutability": "view",
      "type": "function"
    },
    {
      "inputs": [],
      "payable": false,
      "stateMutability": "nonpayable",
      "type": "constructor"
    },
    {
      "anonymous": false,
      "inputs": [
        {
          "indexed": true,
          "name": "from",
          "type": "address"
        },
        {
          "indexed": true,
          "name": "to",
          "type": "address"
        },
        {
          "indexed": true,
          "name": "classId",
          "type": "uint256"
        },
        {
          "indexed": false,
          "name": "quantity",
          "type": "uint256"
        }
      ],
      "name": "Transfer",
      "type": "event"
    },
    {
      "anonymous": false,
      "inputs": [
        {
          "indexed": true,
          "name": "owner",
          "type": "address"
        },
        {
          "indexed": true,
          "name": "approved",
          "type": "address"
        },
        {
          "indexed": true,
          "name": "classId",
          "type": "uint256"
        },
        {
          "indexed": false,
          "name": "quantity",
          "type": "uint256"
        }
      ],
      "name": "Approval",
      "type": "event"
    },
    {
      "constant": true,
      "inputs": [],
      "name": "implementsERC1178",
      "outputs": [
        {
          "name": "",
          "type": "bool"
        }
      ],
      "payable": false,
      "stateMutability": "pure",
      "type": "function"
    },
    {
      "constant": true,
      "inputs": [],
      "name": "totalSupply",
      "outputs": [
        {
          "name": "",
          "type": "uint256"
        }
      ],
      "payable": false,
      "stateMutability": "view",
      "type": "function"
    },
    {
      "constant": true,
      "inputs": [
        {
          "name": "classId",
          "type": "uint256"
        }
      ],
      "name": "individualSupply",
      "outputs": [
        {
          "name": "",
          "type": "uint256"
        }
      ],
      "payable": false,
      "stateMutability": "view",
      "type": "function"
    },
    {
      "constant": true,
      "inputs": [
        {
          "name": "owner",
          "type": "address"
        },
        {
          "name": "classId",
          "type": "uint256"
        }
      ],
      "name": "balanceOf",
      "outputs": [
        {
          "name": "",
          "type": "uint256"
        }
      ],
      "payable": false,
      "stateMutability": "view",
      "type": "function"
    },
    {
      "constant": true,
      "inputs": [
        {
          "name": "owner",
          "type": "address"
        }
      ],
      "name": "classesOwned",
      "outputs": [
        {
          "name": "",
          "type": "uint256[]"
        }
      ],
      "payable": false,
      "stateMutability": "view",
      "type": "function"
    },
    {
      "constant": false,
      "inputs": [
        {
          "name": "to",
          "type": "address"
        },
        {
          "name": "classId",
          "type": "uint256"
        },
        {
          "name": "quantity",
          "type": "uint256"
        }
      ],
      "name": "transfer",
      "outputs": [],
      "payable": false,
      "stateMutability": "nonpayable",
      "type": "function"
    },
    {
      "constant": false,
      "inputs": [
        {
          "name": "to",
          "type": "address"
        },
        {
          "name": "classId",
          "type": "uint256"
        },
        {
          "name": "quantity",
          "type": "uint256"
        }
      ],
      "name": "approve",
      "outputs": [],
      "payable": false,
      "stateMutability": "nonpayable",
      "type": "function"
    },
    {
      "constant": false,
      "inputs": [
        {
          "name": "from",
          "type": "address"
        },
        {
          "name": "to",
          "type": "address"
        },
        {
          "name": "classId",
          "type": "uint256"
        }
      ],
      "name": "transferFrom",
      "outputs": [],
      "payable": false,
      "stateMutability": "nonpayable",
      "type": "function"
    },
    {
      "constant": true,
      "inputs": [],
      "name": "name",
      "outputs": [
        {
          "name": "",
          "type": "string"
        }
      ],
      "payable": false,
      "stateMutability": "pure",
      "type": "function"
    },
    {
      "constant": true,
      "inputs": [
        {
          "name": "classId",
          "type": "uint256"
        }
      ],
      "name": "className",
      "outputs": [
        {
          "name": "",
          "type": "bytes32"
        }
      ],
      "payable": false,
      "stateMutability": "view",
      "type": "function"
    },
    {
      "constant": true,
      "inputs": [],
      "name": "symbol",
      "outputs": [
        {
          "name": "",
          "type": "string"
        }
      ],
      "payable": false,
      "stateMutability": "pure",
      "type": "function"
    },
    {
      "constant": false,
      "inputs": [
        {
          "name": "artistName",
          "type": "bytes32"
        },
        {
          "name": "count",
          "type": "uint256"
        }
      ],
      "name": "registerArtist",
      "outputs": [],
      "payable": true,
      "stateMutability": "payable",
      "type": "function"
    }
  ],
  "bytecode": "0x608060405234801561001057600080fd5b5033600260006101000a81548173ffffffffffffffffffffffffffffffffffffffff021916908373ffffffffffffffffffffffffffffffffffffffff160217905550600160048190555060006003819055506127106006819055506512309ce54000600581905550611472806100876000396000f300608060405260043610610106576000357c0100000000000000000000000000000000000000000000000000000000900463ffffffff168062fdd58e1461010b57806306fdde0314610148578063095bcdb61461017357806314bfd6d01461019c57806317be1933146101d957806318160ddd146102165780631ffbfde31461024157806323b872dd1461027e578063426a8493146102a7578063548f89f9146102d057806370480275146102ec57806379682677146103155780638da5cb5b1461035257806395d89b411461037d5780639f181b5e146103a8578063b4a99a4e146103d3578063c24e7c57146103fe578063deeec34414610429578063fcb7cf0814610466575b600080fd5b34801561011757600080fd5b50610132600480360361012d91908101906110e3565b6104a3565b60405161013f9190611335565b60405180910390f35b34801561015457600080fd5b5061015d6104fe565b60405161016a9190611313565b60405180910390f35b34801561017f57600080fd5b5061019a6004803603610195919081019061111f565b61053b565b005b3480156101a857600080fd5b506101c360048036036101be91908101906111aa565b610738565b6040516101d091906112a0565b60405180910390f35b3480156101e557600080fd5b5061020060048036036101fb91908101906111aa565b610776565b60405161020d9190611335565b60405180910390f35b34801561022257600080fd5b5061022b610793565b6040516102389190611335565b60405180910390f35b34801561024d57600080fd5b50610268600480360361026391908101906111aa565b61079d565b6040516102759190611335565b60405180910390f35b34801561028a57600080fd5b506102a560048036036102a09190810190611094565b6107b5565b005b3480156102b357600080fd5b506102ce60048036036102c9919081019061111f565b610a6b565b005b6102ea60048036036102e5919081019061116e565b610c10565b005b3480156102f857600080fd5b50610313600480360361030e919081019061106b565b610cb9565b005b34801561032157600080fd5b5061033c600480360361033791908101906111aa565b610d7d565b60405161034991906112f8565b60405180910390f35b34801561035e57600080fd5b50610367610d95565b60405161037491906112a0565b60405180910390f35b34801561038957600080fd5b50610392610dba565b60405161039f9190611313565b60405180910390f35b3480156103b457600080fd5b506103bd610df7565b6040516103ca9190611335565b60405180910390f35b3480156103df57600080fd5b506103e8610dfd565b6040516103f591906112a0565b60405180910390f35b34801561040a57600080fd5b50610413610e23565b60405161042091906112dd565b60405180910390f35b34801561043557600080fd5b50610450600480360361044b91908101906111aa565b610e2c565b60405161045d91906112f8565b60405180910390f35b34801561047257600080fd5b5061048d6004803603610488919081019061106b565b610e49565b60405161049a91906112bb565b60405180910390f35b6000600860008473ffffffffffffffffffffffffffffffffffffffff1673ffffffffffffffffffffffffffffffffffffffff168152602001908152602001600020600083815260200190815260200160002054905092915050565b60606040805190810160405280601881526020017f4d756c74692d436c6173732041727469737420546f6b656e0000000000000000815250905090565b610543610fff565b81600860003373ffffffffffffffffffffffffffffffffffffffff1673ffffffffffffffffffffffffffffffffffffffff168152602001908152602001600020600085815260200190815260200160002054101515156105a257600080fd5b81600860003373ffffffffffffffffffffffffffffffffffffffff1673ffffffffffffffffffffffffffffffffffffffff16815260200190815260200160002060008581526020019081526020016000206000828254039250508190555081600860008673ffffffffffffffffffffffffffffffffffffffff1673ffffffffffffffffffffffffffffffffffffffff1681526020019081526020016000206000858152602001908152602001600020600082825401925050819055506040805190810160405280600073ffffffffffffffffffffffffffffffffffffffff1681526020016000815250905080600960003373ffffffffffffffffffffffffffffffffffffffff1673ffffffffffffffffffffffffffffffffffffffff168152602001908152602001600020600085815260200190815260200160002060008201518160000160006101000a81548173ffffffffffffffffffffffffffffffffffffffff021916908373ffffffffffffffffffffffffffffffffffffffff1602179055506020820151816001015590505050505050565b60018181548110151561074757fe5b906000526020600020016000915054906101000a900473ffffffffffffffffffffffffffffffffffffffff1681565b600060076000838152602001908152602001600020549050919050565b6000600354905090565b60076020528060005260406000206000915090505481565b6000806107c0610fff565b600960008773ffffffffffffffffffffffffffffffffffffffff1673ffffffffffffffffffffffffffffffffffffffff16815260200190815260200160002060008581526020019081526020016000209250826001015491508473ffffffffffffffffffffffffffffffffffffffff168360000160009054906101000a900473ffffffffffffffffffffffffffffffffffffffff1673ffffffffffffffffffffffffffffffffffffffff161480156108c85750600860008773ffffffffffffffffffffffffffffffffffffffff1673ffffffffffffffffffffffffffffffffffffffff1681526020019081526020016000206000858152602001908152602001600020548210155b15156108d357600080fd5b81600860008873ffffffffffffffffffffffffffffffffffffffff1673ffffffffffffffffffffffffffffffffffffffff16815260200190815260200160002060008681526020019081526020016000206000828254039250508190555081600860008773ffffffffffffffffffffffffffffffffffffffff1673ffffffffffffffffffffffffffffffffffffffff1681526020019081526020016000206000868152602001908152602001600020600082825401925050819055506040805190810160405280600073ffffffffffffffffffffffffffffffffffffffff1681526020016000815250905080600960008873ffffffffffffffffffffffffffffffffffffffff1673ffffffffffffffffffffffffffffffffffffffff168152602001908152602001600020600086815260200190815260200160002060008201518160000160006101000a81548173ffffffffffffffffffffffffffffffffffffffff021916908373ffffffffffffffffffffffffffffffffffffffff16021790555060208201518160010155905050505050505050565b610a73610fff565b81600860003373ffffffffffffffffffffffffffffffffffffffff1673ffffffffffffffffffffffffffffffffffffffff16815260200190815260200160002060008581526020019081526020016000205410151515610ad257600080fd5b60408051908101604052808573ffffffffffffffffffffffffffffffffffffffff16815260200183815250905080600960003373ffffffffffffffffffffffffffffffffffffffff1673ffffffffffffffffffffffffffffffffffffffff168152602001908152602001600020600085815260200190815260200160002060008201518160000160006101000a81548173ffffffffffffffffffffffffffffffffffffffff021916908373ffffffffffffffffffffffffffffffffffffffff16021790555060208201518160010155905050828473ffffffffffffffffffffffffffffffffffffffff163373ffffffffffffffffffffffffffffffffffffffff167fb3fd5071835887567a0671151121894ddccc2842f1d10bedad13e0d17cace9a785604051610c029190611335565b60405180910390a450505050565b60055481023410158015610c2657506006548110155b1515610c3157600080fd5b80600860003373ffffffffffffffffffffffffffffffffffffffff1673ffffffffffffffffffffffffffffffffffffffff168152602001908152602001600020600060045481526020019081526020016000208190555081600a6000838152602001908152602001600020816000191690555060016004600082825401925050819055505050565b6000809054906101000a900473ffffffffffffffffffffffffffffffffffffffff1673ffffffffffffffffffffffffffffffffffffffff163373ffffffffffffffffffffffffffffffffffffffff16141515610d1457600080fd5b60018190806001815401808255809150509060018203906000526020600020016000909192909190916101000a81548173ffffffffffffffffffffffffffffffffffffffff021916908373ffffffffffffffffffffffffffffffffffffffff1602179055505050565b600a6020528060005260406000206000915090505481565b6000809054906101000a900473ffffffffffffffffffffffffffffffffffffffff1681565b60606040805190810160405280600481526020017f4152544500000000000000000000000000000000000000000000000000000000815250905090565b60035481565b600260009054906101000a900473ffffffffffffffffffffffffffffffffffffffff1681565b60006001905090565b6000600a6000838152602001908152602001600020549050919050565b6060806000806060600354604051908082528060200260200182016040528015610e825781602001602082028038833980820191505090505b50935060009250600191505b600454821015610f73576000600860008873ffffffffffffffffffffffffffffffffffffffff1673ffffffffffffffffffffffffffffffffffffffff168152602001908152602001600020600084815260200190815260200160002054141515610f6657600860008773ffffffffffffffffffffffffffffffffffffffff1673ffffffffffffffffffffffffffffffffffffffff1681526020019081526020016000206000838152602001908152602001600020548484815181101515610f5157fe5b90602001906020020181815250506001830192505b8180600101925050610e8e565b82604051908082528060200260200182016040528015610fa25781602001602082028038833980820191505090505b509050600091505b82821015610ff3578382815181101515610fc057fe5b906020019060200201518183815181101515610fd857fe5b90602001906020020181815250508180600101925050610faa565b80945050505050919050565b6040805190810160405280600073ffffffffffffffffffffffffffffffffffffffff168152602001600081525090565b600061103b82356113c0565b905092915050565b600061104f82356113e0565b905092915050565b600061106382356113ea565b905092915050565b60006020828403121561107d57600080fd5b600061108b8482850161102f565b91505092915050565b6000806000606084860312156110a957600080fd5b60006110b78682870161102f565b93505060206110c88682870161102f565b92505060406110d986828701611057565b9150509250925092565b600080604083850312156110f657600080fd5b60006111048582860161102f565b925050602061111585828601611057565b9150509250929050565b60008060006060848603121561113457600080fd5b60006111428682870161102f565b935050602061115386828701611057565b925050604061116486828701611057565b9150509250925092565b6000806040838503121561118157600080fd5b600061118f85828601611043565b92505060206111a085828601611057565b9150509250929050565b6000602082840312156111bc57600080fd5b60006111ca84828501611057565b91505092915050565b6111dc81611380565b82525050565b60006111ed8261135d565b8084526020840193506111ff83611350565b60005b8281101561123157611215868351611291565b61121e82611373565b9150602086019550600181019050611202565b50849250505092915050565b611246816113a0565b82525050565b611255816113ac565b82525050565b600061126682611368565b80845261127a8160208601602086016113f4565b61128381611427565b602085010191505092915050565b61129a816113b6565b82525050565b60006020820190506112b560008301846111d3565b92915050565b600060208201905081810360008301526112d581846111e2565b905092915050565b60006020820190506112f2600083018461123d565b92915050565b600060208201905061130d600083018461124c565b92915050565b6000602082019050818103600083015261132d818461125b565b905092915050565b600060208201905061134a6000830184611291565b92915050565b6000602082019050919050565b600081519050919050565b600081519050919050565b6000602082019050919050565b600073ffffffffffffffffffffffffffffffffffffffff82169050919050565b60008115159050919050565b6000819050919050565b6000819050919050565b600073ffffffffffffffffffffffffffffffffffffffff82169050919050565b6000819050919050565b6000819050919050565b60005b838110156114125780820151818401526020810190506113f7565b83811115611421576000848401525b50505050565b6000601f19601f83011690509190505600a265627a7a72305820ffedb92ffc9c7f8868285d0c1fd30bad839712469199fd0977664771490f9b0a6c6578706572696d656e74616cf50037",
  "source": "pragma experimental ABIEncoderV2;\n\n/**\n * @title SafeMath\n * @dev Math operations with safety checks that throw on error\n */\nlibrary SafeMath {\n\n  /**\n  * @dev Multiplies two numbers, throws on overflow.\n  */\n  function mul(uint256 a, uint256 b) internal pure returns (uint256 c) {\n    if (a == 0) {\n      return 0;\n    }\n    c = a * b;\n    assert(c / a == b);\n    return c;\n  }\n\n  /**\n  * @dev Integer division of two numbers, truncating the quotient.\n  */\n  function div(uint256 a, uint256 b) internal pure returns (uint256) {\n    // assert(b > 0); // Solidity automatically throws when dividing by 0\n    // uint256 c = a / b;\n    // assert(a == b * c + a % b); // There is no case in which this doesn't hold\n    return a / b;\n  }\n\n  /**\n  * @dev Subtracts two numbers, throws on overflow (i.e. if subtrahend is greater than minuend).\n  */\n  function sub(uint256 a, uint256 b) internal pure returns (uint256) {\n    assert(b <= a);\n    return a - b;\n  }\n\n  /**\n  * @dev Adds two numbers, throws on overflow.\n  */\n  function add(uint256 a, uint256 b) internal pure returns (uint256 c) {\n    c = a + b;\n    assert(c >= a);\n    return c;\n  }\n}\n\n\ncontract AccessControl {\n  address public owner;\n  address[] public admins;\n\n  modifier onlyOwner {\n    require(msg.sender == owner);\n    _;\n  }\n\n  modifier onlyAdmins {\n    bool found = false;\n\n    for (uint i = 0; i < admins.length; i++) {\n      if (admins[i] == msg.sender) {\n        found = true;\n        break;\n      }\n    }\n\n    require(found);\n    _;\n  }\n\n  function addAdmin(address _adminAddress) public onlyOwner {\n    admins.push(_adminAddress);\n  }\n}\n\ncontract ERC1178 {\n    // Required Functions\n    function implementsERC1178() public pure returns (bool);\n    function totalSupply() public view returns (uint256);\n    function individualSupply(uint256 classId) public view returns (uint256);\n    function balanceOf(address owner, uint256 classId) public view returns (uint256);\n    function classesOwned(address owner) public view returns (uint256[]);\n    function transfer(address to, uint256 classId, uint256 quantity) public;\n    function approve(address to, uint256 classId, uint256 quantity) public;\n    function transferFrom(address from, address to, uint256 classId) public;\n\n    // Optional Functions\n    function name() public pure returns (string);\n    function className(uint256 classId) public view returns (bytes32);\n    function symbol() public pure returns (string);\n\n    // Required Events\n    event Transfer(address indexed from, address indexed to, uint256 indexed classId, uint256 quantity);\n    event Approval(address indexed owner, address indexed approved, uint256 indexed classId, uint256 quantity);\n}\n\ncontract ArtistTokenContract is AccessControl, ERC1178 {\n  using SafeMath for uint256;\n  address public Owner;\n  uint256 public tokenCount;\n  uint256 currentClass;\n  uint256 minTokenPrice;\n  uint256 minCount;\n  struct Transactor {\n    address actor;\n    uint256 amount;\n  }\n  mapping(uint256 => uint256) public classIdToSupply;\n  mapping(address => mapping(uint256 => uint256)) ownerToClassToBalance;\n  mapping(address => mapping(uint256 => Transactor)) approvals;\n  mapping(uint256 => bytes32) public classNames;\n\n  // Constructor\n  constructor () public {\n    Owner = msg.sender;\n    currentClass = 1;\n    tokenCount = 0;\n    minCount = 10000; // min of 10000 tokens\n    minTokenPrice = 20000000000000; // around 0.012 cents per token (price at $600 a ether)\n  }\n\n  function implementsERC1178() public pure returns (bool) {\n    return true;\n  }\n\n  function totalSupply() public view returns (uint256) {\n    return tokenCount;\n  }\n\n  function individualSupply(uint256 classId) public view returns (uint256) {\n    return classIdToSupply[classId];\n  }\n\n  function balanceOf(address owner, uint256 classId) public view returns (uint256) {\n    /* if (ownerToClassToBalance[owner] == 0) return 0; */\n    // TODO: make checks to see if ownerToClassToBalance[owner] and return 0 if u get the empty mapping\n    return ownerToClassToBalance[owner][classId];\n  }\n\n  // class of 0 is meaningless and should be ignored.\n  function classesOwned(address owner) public view returns (uint256[]){\n    uint256[] memory tempClasses = new uint256[](tokenCount);\n    uint256 count = 0;\n    for (uint256 i = 1; i < currentClass; i++){\n      if (ownerToClassToBalance[owner][i] != 0){\n        tempClasses[count] = ownerToClassToBalance[owner][i];\n        count += 1;\n      }\n    }\n    uint256[] memory classes = new uint256[](count);\n    for (i = 0; i < count; i++){\n      classes[i] = tempClasses[i];\n    }\n    return classes;\n  }\n\n  function transfer(address to, uint256 classId, uint256 quantity) public {\n    require(ownerToClassToBalance[msg.sender][classId] >= quantity);\n    ownerToClassToBalance[msg.sender][classId] -= quantity;\n    ownerToClassToBalance[to][classId] += quantity;\n    Transactor memory zeroApproval;\n    zeroApproval = Transactor(0x0, 0);\n    approvals[msg.sender][classId] = zeroApproval;\n  }\n\n  function approve(address to, uint256 classId, uint256 quantity) public {\n    require(ownerToClassToBalance[msg.sender][classId] >= quantity);\n    Transactor memory takerApproval;\n    takerApproval = Transactor(to, quantity);\n    approvals[msg.sender][classId] = takerApproval;\n    emit Approval(msg.sender, to, classId, quantity);\n  }\n\n  function transferFrom(address from, address to, uint256 classId) public {\n    Transactor storage takerApproval = approvals[from][classId];\n    uint256 quantity = takerApproval.amount;\n    require(takerApproval.actor == to && quantity >= ownerToClassToBalance[from][classId]);\n    ownerToClassToBalance[from][classId] -= quantity;\n    ownerToClassToBalance[to][classId] += quantity;\n    Transactor memory zeroApproval;\n    zeroApproval = Transactor(0x0, 0);\n    approvals[from][classId] = zeroApproval;\n  }\n\n  function name() public pure returns (string) {\n    return \"Multi-Class Artist Token\";\n  }\n\n  function className(uint256 classId) public view returns (bytes32){\n    return classNames[classId];\n  }\n\n  function symbol() public pure returns (string) {\n    return \"ARTE\";\n  }\n\n  // Artists call this function to create their own token offering\n  function registerArtist(bytes32 artistName, uint256 count) public payable{\n    require(msg.value >= count * minTokenPrice && count >= minCount);\n    ownerToClassToBalance[msg.sender][currentClass] = count;\n    classNames[count] = artistName;\n    currentClass += 1;\n  }\n\n}\n",
  "sourcePath": "/Users/achon/Downloads/pitbull-dapp/contracts/MCFTArtistTokenContract.sol",
  "compiler": {
    "name": "solc",
    "version": "0.4.24+commit.e67f0147.Emscripten.clang"
  },
  "schemaVersion": "2.0.0",
  "updatedAt": "2018-06-26T00:58:16.930Z"
}