{
  "contractName": "MCFTEnergyTokenContract",
  "abi": [
    {
      "constant": true,
      "inputs": [
        {
          "name": "",
          "type": "uint256"
        }
      ],
      "name": "admins",
      "outputs": [
        {
          "name": "",
          "type": "address"
        }
      ],
      "payable": false,
      "stateMutability": "view",
      "type": "function"
    },
    {
      "constant": true,
      "inputs": [
        {
          "name": "",
          "type": "uint256"
        }
      ],
      "name": "classIdToSupply",
      "outputs": [
        {
          "name": "",
          "type": "uint256"
        }
      ],
      "payable": false,
      "stateMutability": "view",
      "type": "function"
    },
    {
      "constant": false,
      "inputs": [
        {
          "name": "_adminAddress",
          "type": "address"
        }
      ],
      "name": "addAdmin",
      "outputs": [],
      "payable": false,
      "stateMutability": "nonpayable",
      "type": "function"
    },
    {
      "constant": true,
      "inputs": [
        {
          "name": "",
          "type": "uint256"
        }
      ],
      "name": "classNames",
      "outputs": [
        {
          "name": "",
          "type": "bytes32"
        }
      ],
      "payable": false,
      "stateMutability": "view",
      "type": "function"
    },
    {
      "constant": true,
      "inputs": [],
      "name": "owner",
      "outputs": [
        {
          "name": "",
          "type": "address"
        }
      ],
      "payable": false,
      "stateMutability": "view",
      "type": "function"
    },
    {
      "constant": true,
      "inputs": [],
      "name": "tokenCount",
      "outputs": [
        {
          "name": "",
          "type": "uint256"
        }
      ],
      "payable": false,
      "stateMutability": "view",
      "type": "function"
    },
    {
      "constant": true,
      "inputs": [],
      "name": "Owner",
      "outputs": [
        {
          "name": "",
          "type": "address"
        }
      ],
      "payable": false,
      "stateMutability": "view",
      "type": "function"
    },
    {
      "inputs": [],
      "payable": false,
      "stateMutability": "nonpayable",
      "type": "constructor"
    },
    {
      "anonymous": false,
      "inputs": [
        {
          "indexed": true,
          "name": "from",
          "type": "address"
        },
        {
          "indexed": true,
          "name": "to",
          "type": "address"
        },
        {
          "indexed": true,
          "name": "classId",
          "type": "uint256"
        },
        {
          "indexed": false,
          "name": "quantity",
          "type": "uint256"
        }
      ],
      "name": "Transfer",
      "type": "event"
    },
    {
      "anonymous": false,
      "inputs": [
        {
          "indexed": true,
          "name": "owner",
          "type": "address"
        },
        {
          "indexed": true,
          "name": "approved",
          "type": "address"
        },
        {
          "indexed": true,
          "name": "classId",
          "type": "uint256"
        },
        {
          "indexed": false,
          "name": "quantity",
          "type": "uint256"
        }
      ],
      "name": "Approval",
      "type": "event"
    },
    {
      "constant": true,
      "inputs": [],
      "name": "implementsERC1178",
      "outputs": [
        {
          "name": "",
          "type": "bool"
        }
      ],
      "payable": false,
      "stateMutability": "pure",
      "type": "function"
    },
    {
      "constant": true,
      "inputs": [],
      "name": "totalSupply",
      "outputs": [
        {
          "name": "",
          "type": "uint256"
        }
      ],
      "payable": false,
      "stateMutability": "view",
      "type": "function"
    },
    {
      "constant": true,
      "inputs": [
        {
          "name": "classId",
          "type": "uint256"
        }
      ],
      "name": "individualSupply",
      "outputs": [
        {
          "name": "",
          "type": "uint256"
        }
      ],
      "payable": false,
      "stateMutability": "view",
      "type": "function"
    },
    {
      "constant": true,
      "inputs": [
        {
          "name": "owner",
          "type": "address"
        },
        {
          "name": "classId",
          "type": "uint256"
        }
      ],
      "name": "balanceOf",
      "outputs": [
        {
          "name": "",
          "type": "uint256"
        }
      ],
      "payable": false,
      "stateMutability": "view",
      "type": "function"
    },
    {
      "constant": true,
      "inputs": [
        {
          "name": "owner",
          "type": "address"
        }
      ],
      "name": "classesOwned",
      "outputs": [
        {
          "name": "",
          "type": "uint256[]"
        }
      ],
      "payable": false,
      "stateMutability": "view",
      "type": "function"
    },
    {
      "constant": false,
      "inputs": [
        {
          "name": "to",
          "type": "address"
        },
        {
          "name": "classId",
          "type": "uint256"
        },
        {
          "name": "quantity",
          "type": "uint256"
        }
      ],
      "name": "transfer",
      "outputs": [],
      "payable": false,
      "stateMutability": "nonpayable",
      "type": "function"
    },
    {
      "constant": false,
      "inputs": [
        {
          "name": "to",
          "type": "address"
        },
        {
          "name": "classId",
          "type": "uint256"
        },
        {
          "name": "quantity",
          "type": "uint256"
        }
      ],
      "name": "approve",
      "outputs": [],
      "payable": false,
      "stateMutability": "nonpayable",
      "type": "function"
    },
    {
      "constant": false,
      "inputs": [
        {
          "name": "classIdHeld",
          "type": "uint256"
        },
        {
          "name": "quantityHeld",
          "type": "uint256"
        },
        {
          "name": "classIdWanted",
          "type": "uint256"
        },
        {
          "name": "quantityWanted",
          "type": "uint256"
        }
      ],
      "name": "approveForToken",
      "outputs": [],
      "payable": false,
      "stateMutability": "nonpayable",
      "type": "function"
    },
    {
      "constant": false,
      "inputs": [
        {
          "name": "to",
          "type": "address"
        },
        {
          "name": "classIdPosted",
          "type": "uint256"
        },
        {
          "name": "quantityPosted",
          "type": "uint256"
        },
        {
          "name": "classIdWanted",
          "type": "uint256"
        },
        {
          "name": "quantityWanted",
          "type": "uint256"
        }
      ],
      "name": "exchange",
      "outputs": [],
      "payable": false,
      "stateMutability": "nonpayable",
      "type": "function"
    },
    {
      "constant": false,
      "inputs": [
        {
          "name": "from",
          "type": "address"
        },
        {
          "name": "to",
          "type": "address"
        },
        {
          "name": "classId",
          "type": "uint256"
        }
      ],
      "name": "transferFrom",
      "outputs": [],
      "payable": false,
      "stateMutability": "nonpayable",
      "type": "function"
    },
    {
      "constant": true,
      "inputs": [],
      "name": "name",
      "outputs": [
        {
          "name": "",
          "type": "string"
        }
      ],
      "payable": false,
      "stateMutability": "pure",
      "type": "function"
    },
    {
      "constant": true,
      "inputs": [
        {
          "name": "classId",
          "type": "uint256"
        }
      ],
      "name": "className",
      "outputs": [
        {
          "name": "",
          "type": "bytes32"
        }
      ],
      "payable": false,
      "stateMutability": "view",
      "type": "function"
    },
    {
      "constant": true,
      "inputs": [],
      "name": "symbol",
      "outputs": [
        {
          "name": "",
          "type": "string"
        }
      ],
      "payable": false,
      "stateMutability": "pure",
      "type": "function"
    },
    {
      "constant": false,
      "inputs": [
        {
          "name": "artistName",
          "type": "bytes32"
        },
        {
          "name": "count",
          "type": "uint256"
        }
      ],
      "name": "registerCompany",
      "outputs": [],
      "payable": true,
      "stateMutability": "payable",
      "type": "function"
    }
  ],
  "bytecode": "0x608060405234801561001057600080fd5b5033600260006101000a81548173ffffffffffffffffffffffffffffffffffffffff021916908373ffffffffffffffffffffffffffffffffffffffff160217905550600160048190555060006003819055506127106006819055506512309ce54000600581905550611ca9806100876000396000f30060806040526004361061011c576000357c0100000000000000000000000000000000000000000000000000000000900463ffffffff168062fdd58e1461012157806306fdde031461015e578063095bcdb61461018957806314bfd6d0146101b257806317be1933146101ef57806318160ddd1461022c5780631ffbfde31461025757806323b872dd14610294578063426a8493146102bd57806344f111c2146102e657806364a1455814610302578063704802751461032b57806379682677146103545780638da5cb5b1461039157806395d89b41146103bc5780639a382180146103e75780639f181b5e14610410578063b4a99a4e1461043b578063c24e7c5714610466578063deeec34414610491578063fcb7cf08146104ce575b600080fd5b34801561012d57600080fd5b5061014860048036036101439190810190611840565b61050b565b6040516101559190611b6c565b60405180910390f35b34801561016a57600080fd5b50610173610566565b6040516101809190611b4a565b60405180910390f35b34801561019557600080fd5b506101b060048036036101ab919081019061187c565b6105a3565b005b3480156101be57600080fd5b506101d960048036036101d4919081019061197e565b6107a0565b6040516101e69190611ad7565b60405180910390f35b3480156101fb57600080fd5b506102166004803603610211919081019061197e565b6107de565b6040516102239190611b6c565b60405180910390f35b34801561023857600080fd5b506102416107fb565b60405161024e9190611b6c565b60405180910390f35b34801561026357600080fd5b5061027e6004803603610279919081019061197e565b610805565b60405161028b9190611b6c565b60405180910390f35b3480156102a057600080fd5b506102bb60048036036102b691908101906117f1565b61081d565b005b3480156102c957600080fd5b506102e460048036036102df919081019061187c565b610ad3565b005b61030060048036036102fb9190810190611942565b610c78565b005b34801561030e57600080fd5b50610329600480360361032491908101906118cb565b610d21565b005b34801561033757600080fd5b50610352600480360361034d91908101906117c8565b6112c6565b005b34801561036057600080fd5b5061037b6004803603610376919081019061197e565b61138a565b6040516103889190611b2f565b60405180910390f35b34801561039d57600080fd5b506103a66113a2565b6040516103b39190611ad7565b60405180910390f35b3480156103c857600080fd5b506103d16113c7565b6040516103de9190611b4a565b60405180910390f35b3480156103f357600080fd5b5061040e600480360361040991908101906119a7565b611404565b005b34801561041c57600080fd5b50610425611502565b6040516104329190611b6c565b60405180910390f35b34801561044757600080fd5b50610450611508565b60405161045d9190611ad7565b60405180910390f35b34801561047257600080fd5b5061047b61152e565b6040516104889190611b14565b60405180910390f35b34801561049d57600080fd5b506104b860048036036104b3919081019061197e565b611537565b6040516104c59190611b2f565b60405180910390f35b3480156104da57600080fd5b506104f560048036036104f091908101906117c8565b611554565b6040516105029190611af2565b60405180910390f35b6000600860008473ffffffffffffffffffffffffffffffffffffffff1673ffffffffffffffffffffffffffffffffffffffff168152602001908152602001600020600083815260200190815260200160002054905092915050565b60606040805190810160405280601881526020017f4d756c74692d436c61737320456e6572677920546f6b656e0000000000000000815250905090565b6105ab611742565b81600860003373ffffffffffffffffffffffffffffffffffffffff1673ffffffffffffffffffffffffffffffffffffffff1681526020019081526020016000206000858152602001908152602001600020541015151561060a57600080fd5b81600860003373ffffffffffffffffffffffffffffffffffffffff1673ffffffffffffffffffffffffffffffffffffffff16815260200190815260200160002060008581526020019081526020016000206000828254039250508190555081600860008673ffffffffffffffffffffffffffffffffffffffff1673ffffffffffffffffffffffffffffffffffffffff1681526020019081526020016000206000858152602001908152602001600020600082825401925050819055506040805190810160405280600073ffffffffffffffffffffffffffffffffffffffff1681526020016000815250905080600960003373ffffffffffffffffffffffffffffffffffffffff1673ffffffffffffffffffffffffffffffffffffffff168152602001908152602001600020600085815260200190815260200160002060008201518160000160006101000a81548173ffffffffffffffffffffffffffffffffffffffff021916908373ffffffffffffffffffffffffffffffffffffffff1602179055506020820151816001015590505050505050565b6001818154811015156107af57fe5b906000526020600020016000915054906101000a900473ffffffffffffffffffffffffffffffffffffffff1681565b600060076000838152602001908152602001600020549050919050565b6000600354905090565b60076020528060005260406000206000915090505481565b600080610828611742565b600960008773ffffffffffffffffffffffffffffffffffffffff1673ffffffffffffffffffffffffffffffffffffffff16815260200190815260200160002060008581526020019081526020016000209250826001015491508473ffffffffffffffffffffffffffffffffffffffff168360000160009054906101000a900473ffffffffffffffffffffffffffffffffffffffff1673ffffffffffffffffffffffffffffffffffffffff161480156109305750600860008773ffffffffffffffffffffffffffffffffffffffff1673ffffffffffffffffffffffffffffffffffffffff1681526020019081526020016000206000858152602001908152602001600020548210155b151561093b57600080fd5b81600860008873ffffffffffffffffffffffffffffffffffffffff1673ffffffffffffffffffffffffffffffffffffffff16815260200190815260200160002060008681526020019081526020016000206000828254039250508190555081600860008773ffffffffffffffffffffffffffffffffffffffff1673ffffffffffffffffffffffffffffffffffffffff1681526020019081526020016000206000868152602001908152602001600020600082825401925050819055506040805190810160405280600073ffffffffffffffffffffffffffffffffffffffff1681526020016000815250905080600960008873ffffffffffffffffffffffffffffffffffffffff1673ffffffffffffffffffffffffffffffffffffffff168152602001908152602001600020600086815260200190815260200160002060008201518160000160006101000a81548173ffffffffffffffffffffffffffffffffffffffff021916908373ffffffffffffffffffffffffffffffffffffffff16021790555060208201518160010155905050505050505050565b610adb611742565b81600860003373ffffffffffffffffffffffffffffffffffffffff1673ffffffffffffffffffffffffffffffffffffffff16815260200190815260200160002060008581526020019081526020016000205410151515610b3a57600080fd5b60408051908101604052808573ffffffffffffffffffffffffffffffffffffffff16815260200183815250905080600960003373ffffffffffffffffffffffffffffffffffffffff1673ffffffffffffffffffffffffffffffffffffffff168152602001908152602001600020600085815260200190815260200160002060008201518160000160006101000a81548173ffffffffffffffffffffffffffffffffffffffff021916908373ffffffffffffffffffffffffffffffffffffffff16021790555060208201518160010155905050828473ffffffffffffffffffffffffffffffffffffffff163373ffffffffffffffffffffffffffffffffffffffff167fb3fd5071835887567a0671151121894ddccc2842f1d10bedad13e0d17cace9a785604051610c6a9190611b6c565b60405180910390a450505050565b60055481023410158015610c8e57506006548110155b1515610c9957600080fd5b80600860003373ffffffffffffffffffffffffffffffffffffffff1673ffffffffffffffffffffffffffffffffffffffff168152602001908152602001600020600060045481526020019081526020016000208190555081600a6000838152602001908152602001600020816000191690555060016004600082825401925050819055505050565b600083600860003373ffffffffffffffffffffffffffffffffffffffff1673ffffffffffffffffffffffffffffffffffffffff16815260200190815260200160002060008781526020019081526020016000205410151515610d8257600080fd5b81600860008873ffffffffffffffffffffffffffffffffffffffff1673ffffffffffffffffffffffffffffffffffffffff16815260200190815260200160002060008581526020019081526020016000205410151515610de157600080fd5b3073ffffffffffffffffffffffffffffffffffffffff16600960003373ffffffffffffffffffffffffffffffffffffffff1673ffffffffffffffffffffffffffffffffffffffff168152602001908152602001600020600087815260200190815260200160002060000160009054906101000a900473ffffffffffffffffffffffffffffffffffffffff1673ffffffffffffffffffffffffffffffffffffffff16148015610ee2575083600960003373ffffffffffffffffffffffffffffffffffffffff1673ffffffffffffffffffffffffffffffffffffffff16815260200190815260200160002060008781526020019081526020016000206001015410155b1515610eed57600080fd5b3073ffffffffffffffffffffffffffffffffffffffff16600960008873ffffffffffffffffffffffffffffffffffffffff1673ffffffffffffffffffffffffffffffffffffffff168152602001908152602001600020600085815260200190815260200160002060000160009054906101000a900473ffffffffffffffffffffffffffffffffffffffff1673ffffffffffffffffffffffffffffffffffffffff16148015610fee575081600960008873ffffffffffffffffffffffffffffffffffffffff1673ffffffffffffffffffffffffffffffffffffffff16815260200190815260200160002060008581526020019081526020016000206001015410155b1515610ff957600080fd5b600b60008773ffffffffffffffffffffffffffffffffffffffff1673ffffffffffffffffffffffffffffffffffffffff16815260200190815260200160002060008481526020019081526020016000206000868152602001908152602001600020905061106a81600001548561170a565b61107882600101548461170a565b10151561108457600080fd5b83600860003373ffffffffffffffffffffffffffffffffffffffff1673ffffffffffffffffffffffffffffffffffffffff16815260200190815260200160002060008781526020019081526020016000206000828254039250508190555083600860008873ffffffffffffffffffffffffffffffffffffffff1673ffffffffffffffffffffffffffffffffffffffff16815260200190815260200160002060008781526020019081526020016000206000828254019250508190555081600860003373ffffffffffffffffffffffffffffffffffffffff1673ffffffffffffffffffffffffffffffffffffffff16815260200190815260200160002060008581526020019081526020016000206000828254019250508190555081600860008873ffffffffffffffffffffffffffffffffffffffff1673ffffffffffffffffffffffffffffffffffffffff16815260200190815260200160002060008581526020019081526020016000206000828254039250508190555083600960003373ffffffffffffffffffffffffffffffffffffffff1673ffffffffffffffffffffffffffffffffffffffff16815260200190815260200160002060008781526020019081526020016000206001016000828254039250508190555081600960008873ffffffffffffffffffffffffffffffffffffffff1673ffffffffffffffffffffffffffffffffffffffff168152602001908152602001600020600085815260200190815260200160002060010160008282540392505081905550505050505050565b6000809054906101000a900473ffffffffffffffffffffffffffffffffffffffff1673ffffffffffffffffffffffffffffffffffffffff163373ffffffffffffffffffffffffffffffffffffffff1614151561132157600080fd5b60018190806001815401808255809150509060018203906000526020600020016000909192909190916101000a81548173ffffffffffffffffffffffffffffffffffffffff021916908373ffffffffffffffffffffffffffffffffffffffff1602179055505050565b600a6020528060005260406000206000915090505481565b6000809054906101000a900473ffffffffffffffffffffffffffffffffffffffff1681565b60606040805190810160405280600481526020017f454e524700000000000000000000000000000000000000000000000000000000815250905090565b61140c611772565b83600860003373ffffffffffffffffffffffffffffffffffffffff1673ffffffffffffffffffffffffffffffffffffffff1681526020019081526020016000206000878152602001908152602001600020541015151561146b57600080fd5b604080519081016040528085815260200183815250905080600b60003373ffffffffffffffffffffffffffffffffffffffff1673ffffffffffffffffffffffffffffffffffffffff1681526020019081526020016000206000878152602001908152602001600020600085815260200190815260200160002060008201518160000155602082015181600101559050505050505050565b60035481565b600260009054906101000a900473ffffffffffffffffffffffffffffffffffffffff1681565b60006001905090565b6000600a6000838152602001908152602001600020549050919050565b606080600080606060035460405190808252806020026020018201604052801561158d5781602001602082028038833980820191505090505b50935060009250600191505b60045482101561167e576000600860008873ffffffffffffffffffffffffffffffffffffffff1673ffffffffffffffffffffffffffffffffffffffff16815260200190815260200160002060008481526020019081526020016000205414151561167157600860008773ffffffffffffffffffffffffffffffffffffffff1673ffffffffffffffffffffffffffffffffffffffff168152602001908152602001600020600083815260200190815260200160002054848481518110151561165c57fe5b90602001906020020181815250506001830192505b8180600101925050611599565b826040519080825280602002602001820160405280156116ad5781602001602082028038833980820191505090505b509050600091505b828210156116fe5783828151811015156116cb57fe5b9060200190602002015181838151811015156116e357fe5b906020019060200201818152505081806001019250506116b5565b80945050505050919050565b60008083141561171d576000905061173c565b818302905081838281151561172e57fe5b0414151561173857fe5b8090505b92915050565b6040805190810160405280600073ffffffffffffffffffffffffffffffffffffffff168152602001600081525090565b604080519081016040528060008152602001600081525090565b60006117988235611bf7565b905092915050565b60006117ac8235611c17565b905092915050565b60006117c08235611c21565b905092915050565b6000602082840312156117da57600080fd5b60006117e88482850161178c565b91505092915050565b60008060006060848603121561180657600080fd5b60006118148682870161178c565b93505060206118258682870161178c565b9250506040611836868287016117b4565b9150509250925092565b6000806040838503121561185357600080fd5b60006118618582860161178c565b9250506020611872858286016117b4565b9150509250929050565b60008060006060848603121561189157600080fd5b600061189f8682870161178c565b93505060206118b0868287016117b4565b92505060406118c1868287016117b4565b9150509250925092565b600080600080600060a086880312156118e357600080fd5b60006118f18882890161178c565b9550506020611902888289016117b4565b9450506040611913888289016117b4565b9350506060611924888289016117b4565b9250506080611935888289016117b4565b9150509295509295909350565b6000806040838503121561195557600080fd5b6000611963858286016117a0565b9250506020611974858286016117b4565b9150509250929050565b60006020828403121561199057600080fd5b600061199e848285016117b4565b91505092915050565b600080600080608085870312156119bd57600080fd5b60006119cb878288016117b4565b94505060206119dc878288016117b4565b93505060406119ed878288016117b4565b92505060606119fe878288016117b4565b91505092959194509250565b611a1381611bb7565b82525050565b6000611a2482611b94565b808452602084019350611a3683611b87565b60005b82811015611a6857611a4c868351611ac8565b611a5582611baa565b9150602086019550600181019050611a39565b50849250505092915050565b611a7d81611bd7565b82525050565b611a8c81611be3565b82525050565b6000611a9d82611b9f565b808452611ab1816020860160208601611c2b565b611aba81611c5e565b602085010191505092915050565b611ad181611bed565b82525050565b6000602082019050611aec6000830184611a0a565b92915050565b60006020820190508181036000830152611b0c8184611a19565b905092915050565b6000602082019050611b296000830184611a74565b92915050565b6000602082019050611b446000830184611a83565b92915050565b60006020820190508181036000830152611b648184611a92565b905092915050565b6000602082019050611b816000830184611ac8565b92915050565b6000602082019050919050565b600081519050919050565b600081519050919050565b6000602082019050919050565b600073ffffffffffffffffffffffffffffffffffffffff82169050919050565b60008115159050919050565b6000819050919050565b6000819050919050565b600073ffffffffffffffffffffffffffffffffffffffff82169050919050565b6000819050919050565b6000819050919050565b60005b83811015611c49578082015181840152602081019050611c2e565b83811115611c58576000848401525b50505050565b6000601f19601f83011690509190505600a265627a7a72305820bf74701f4e49d547ac0c6b4d1d1e3762c2fce336595635b3f1561cc27a5c23ad6c6578706572696d656e74616cf50037",
  "source": "pragma experimental ABIEncoderV2;\npragma solidity ^0.4.24;\n\n/**\n * @title SafeMath\n * @dev Math operations with safety checks that throw on error\n */\nlibrary SafeMath {\n\n  /**\n  * @dev Multiplies two numbers, throws on overflow.\n  */\n  function mul(uint256 a, uint256 b) internal pure returns (uint256 c) {\n    if (a == 0) {\n      return 0;\n    }\n    c = a * b;\n    assert(c / a == b);\n    return c;\n  }\n\n  /**\n  * @dev Integer division of two numbers, truncating the quotient.\n  */\n  function div(uint256 a, uint256 b) internal pure returns (uint256) {\n    // assert(b > 0); // Solidity automatically throws when dividing by 0\n    // uint256 c = a / b;\n    // assert(a == b * c + a % b); // There is no case in which this doesn't hold\n    return a / b;\n  }\n\n  /**\n  * @dev Subtracts two numbers, throws on overflow (i.e. if subtrahend is greater than minuend).\n  */\n  function sub(uint256 a, uint256 b) internal pure returns (uint256) {\n    assert(b <= a);\n    return a - b;\n  }\n\n  /**\n  * @dev Adds two numbers, throws on overflow.\n  */\n  function add(uint256 a, uint256 b) internal pure returns (uint256 c) {\n    c = a + b;\n    assert(c >= a);\n    return c;\n  }\n}\n\n\ncontract AccessControl {\n  address public owner;\n  address[] public admins;\n\n  modifier onlyOwner {\n    require(msg.sender == owner);\n    _;\n  }\n\n  modifier onlyAdmins {\n    bool found = false;\n\n    for (uint i = 0; i < admins.length; i++) {\n      if (admins[i] == msg.sender) {\n        found = true;\n        break;\n      }\n    }\n\n    require(found);\n    _;\n  }\n\n  function addAdmin(address _adminAddress) public onlyOwner {\n    admins.push(_adminAddress);\n  }\n}\n\ncontract ERC1178 {\n    // Required Functions\n    function implementsERC1178() public pure returns (bool);\n    function totalSupply() public view returns (uint256);\n    function individualSupply(uint256 classId) public view returns (uint256);\n    function balanceOf(address owner, uint256 classId) public view returns (uint256);\n    function classesOwned(address owner) public view returns (uint256[]);\n    function transfer(address to, uint256 classId, uint256 quantity) public;\n    function approve(address to, uint256 classId, uint256 quantity) public;\n    function transferFrom(address from, address to, uint256 classId) public;\n\n    // Optional Functions\n    function name() public pure returns (string);\n    function className(uint256 classId) public view returns (bytes32);\n    function symbol() public pure returns (string);\n\n    // Required Events\n    event Transfer(address indexed from, address indexed to, uint256 indexed classId, uint256 quantity);\n    event Approval(address indexed owner, address indexed approved, uint256 indexed classId, uint256 quantity);\n}\n\ncontract MCFTEnergyTokenContract is AccessControl, ERC1178 {\n  using SafeMath for uint256;\n  address public Owner;\n  uint256 public tokenCount;\n  uint256 currentClass;\n  uint256 minTokenPrice;\n  uint256 minCount;\n  struct Transactor {\n    address actor;\n    uint256 amount;\n  }\n  struct TokenExchangeRate {\n    uint256 heldAmount;\n    uint256 takeAmount;\n  }\n  mapping(uint256 => uint256) public classIdToSupply;\n  mapping(address => mapping(uint256 => uint256)) ownerToClassToBalance;\n  mapping(address => mapping(uint256 => Transactor)) approvals;\n  mapping(uint256 => bytes32) public classNames;\n  // owner's address to classIdHeld => classIdWanted => TokenExchangeRate\n  mapping(address => mapping(uint256 => mapping(uint256 => TokenExchangeRate))) exchangeRates;\n\n\n  // Constructor\n  constructor () public {\n    Owner = msg.sender;\n    currentClass = 1;\n    tokenCount = 0;\n    minCount = 10000; // min of 10000 tokens\n    minTokenPrice = 20000000000000; // around 0.012 cents per token (price at $600 a ether)\n  }\n\n  function implementsERC1178() public pure returns (bool) {\n    return true;\n  }\n\n  function totalSupply() public view returns (uint256) {\n    return tokenCount;\n  }\n\n  function individualSupply(uint256 classId) public view returns (uint256) {\n    return classIdToSupply[classId];\n  }\n\n  function balanceOf(address owner, uint256 classId) public view returns (uint256) {\n    /* if (ownerToClassToBalance[owner] == 0) return 0; */\n    // TODO: make checks to see if ownerToClassToBalance[owner] and return 0 if u get the empty mapping\n    return ownerToClassToBalance[owner][classId];\n  }\n\n  // class of 0 is meaningless and should be ignored.\n  function classesOwned(address owner) public view returns (uint256[]){\n    uint256[] memory tempClasses = new uint256[](tokenCount);\n    uint256 count = 0;\n    for (uint256 i = 1; i < currentClass; i++){\n      if (ownerToClassToBalance[owner][i] != 0){\n        tempClasses[count] = ownerToClassToBalance[owner][i];\n        count += 1;\n      }\n    }\n    uint256[] memory classes = new uint256[](count);\n    for (i = 0; i < count; i++){\n      classes[i] = tempClasses[i];\n    }\n    return classes;\n  }\n\n  function transfer(address to, uint256 classId, uint256 quantity) public {\n    require(ownerToClassToBalance[msg.sender][classId] >= quantity);\n    ownerToClassToBalance[msg.sender][classId] -= quantity;\n    ownerToClassToBalance[to][classId] += quantity;\n    Transactor memory zeroApproval;\n    zeroApproval = Transactor(0x0, 0);\n    approvals[msg.sender][classId] = zeroApproval;\n  }\n\n  function approve(address to, uint256 classId, uint256 quantity) public {\n    require(ownerToClassToBalance[msg.sender][classId] >= quantity);\n    Transactor memory takerApproval;\n    takerApproval = Transactor(to, quantity);\n    approvals[msg.sender][classId] = takerApproval;\n    emit Approval(msg.sender, to, classId, quantity);\n  }\n\n  function approveForToken(uint256 classIdHeld, uint256 quantityHeld,\n    uint256 classIdWanted, uint256 quantityWanted) public {\n    require(ownerToClassToBalance[msg.sender][classIdHeld] >= quantityHeld);\n    TokenExchangeRate memory tokenExchangeApproval;\n    tokenExchangeApproval = TokenExchangeRate(quantityHeld, quantityWanted);\n    exchangeRates[msg.sender][classIdHeld][classIdWanted] = tokenExchangeApproval;\n  }\n\n  /**\n    A = msg.sender and B = to\n    A wants to exchange his quantityHeld amount of token classIdHeld\n    in exchange for person to's quantityWanted amount of tokens of classIdWanted\n\n\n\n    X tokenA to Y tokenB\n            or\n    W tokenA to Z tokenB\n  */\n  function exchange(address to, uint256 classIdPosted, uint256 quantityPosted,\n    uint256 classIdWanted, uint256 quantityWanted) public {\n      // check if capital existence requirements are met by both parties\n      require(ownerToClassToBalance[msg.sender][classIdPosted] >= quantityPosted);\n      require(ownerToClassToBalance[to][classIdWanted] >= quantityWanted);\n      // check if approvals are met\n      require(approvals[msg.sender][classIdPosted].actor == address(this) &&\n        approvals[msg.sender][classIdPosted].amount >= quantityPosted);\n      require(approvals[to][classIdWanted].actor == address(this) &&\n        approvals[to][classIdWanted].amount >= quantityWanted);\n      // check if exchange rate is acceptable\n      TokenExchangeRate storage rate = exchangeRates[to][classIdWanted][classIdPosted];\n      require(SafeMath.mul(rate.takeAmount, quantityWanted) < SafeMath.mul(rate.heldAmount, quantityPosted));\n      // update balances\n      ownerToClassToBalance[msg.sender][classIdPosted] -= quantityPosted;\n      ownerToClassToBalance[to][classIdPosted] += quantityPosted;\n      ownerToClassToBalance[msg.sender][classIdWanted] += quantityWanted;\n      ownerToClassToBalance[to][classIdWanted] -= quantityWanted;\n      // update approvals and\n      approvals[msg.sender][classIdPosted].amount -= quantityPosted;\n      approvals[to][classIdWanted].amount -= quantityWanted;\n    }\n\n  function transferFrom(address from, address to, uint256 classId) public {\n    Transactor storage takerApproval = approvals[from][classId];\n    uint256 quantity = takerApproval.amount;\n    require(takerApproval.actor == to && quantity >= ownerToClassToBalance[from][classId]);\n    ownerToClassToBalance[from][classId] -= quantity;\n    ownerToClassToBalance[to][classId] += quantity;\n    Transactor memory zeroApproval;\n    zeroApproval = Transactor(0x0, 0);\n    approvals[from][classId] = zeroApproval;\n  }\n\n  function name() public pure returns (string) {\n    return \"Multi-Class Energy Token\";\n  }\n\n  function className(uint256 classId) public view returns (bytes32){\n    return classNames[classId];\n  }\n\n  function symbol() public pure returns (string) {\n    return \"ENRG\";\n  }\n\n  // Energy Companies call this function to create their own token offering\n  function registerCompany(bytes32 artistName, uint256 count) public payable{\n    require(msg.value >= count * minTokenPrice && count >= minCount);\n    ownerToClassToBalance[msg.sender][currentClass] = count;\n    classNames[count] = artistName;\n    currentClass += 1;\n  }\n\n\n\n}\n",
  "sourcePath": "/Users/achon/Downloads/energy_dapp/contracts/MCFTEnergyTokenContract.sol",
  "compiler": {
    "name": "solc",
    "version": "0.4.24+commit.e67f0147.Emscripten.clang"
  },
  "schemaVersion": "2.0.0",
  "updatedAt": "2018-06-26T20:41:54.330Z"
}